:020000040800F2
:10000000F0060020310200084714000861130008C0
:1000100045140008AF0500089D1700080000000007
:100020000000000000000000000000004B14000869
:10003000B105000800000000491400084D14000834
:100040004B0200084B0200084B0200084B0200085C
:100050004B0200084B0200084B0200084B0200084C
:100060004B0200084B0200084B0200084B0200083C
:100070004B0200084B0200084B0200084B0200082C
:100080004B0200084B0200084B0200084B0200081C
:100090004B0200084B0200084B0200084B0200080C
:1000A0004B0200084B0200084B0200084B020008FC
:1000B0004B0200084B0200084B0200084B020008EC
:1000C0004B0200084B0200084B0200084B020008DC
:1000D0004B020008911700084B0200084B02000871
:1000E0004B0200084B0200084B0200084B020008BC
:1000F0004B0200084B0200084B0200084B020008AC
:100100004B0200084B0200084B0200084B0200089B
:100110004B0200084B0200084B0200084B0200088B
:100120004B0200084B0200084B0200084B0200087B
:100130004B0200084B0200084B0200084B0200086B
:100140004B0200084B0200084B0200084B0200085B
:100150004B0200084B0200084B0200084B0200084B
:100160004B0200084B0200084B0200084B0200083B
:100170004B0200084B0200084B0200080000000080
:100180004B0200084B02000800F002F800F041F8B2
:100190000AA090E8000C82448344AAF10107DA45E2
:1001A00001D100F036F8AFF2090EBAE80F0013F0F3
:1001B000010F18BFFB1A43F001031847A0170000F6
:1001C000C0170000103A24BF78C878C1FAD8520787
:1001D00024BF30C830C144BF04680C6070470000C1
:1001E0000023002400250026103A28BF78C1FBD840
:1001F000520728BF30C148BF0B607047632900F029
:100200009081002070471FB501F096FB1FBD10B50F
:1002100010BD00F092F91146FFF7F5FF01F0D0FA9A
:1002200000F0B0F903B4FFF7F2FF03BC00F0B8F937
:100230000948804709480047FEE7FEE7FEE7FEE77A
:10024000FEE7FEE7FEE7FEE7FEE7FEE704480549B6
:10025000054A064B70470000E114000889010008B8
:10026000F0000020F0060020F0020020F002002044
:1002700053EA020C00F069802DE9F04B4FF00006C4
:10028000002B1FBFB3FA83F503FA05F424FA05F631
:100290005E4012BF1643B2FA82F502FA05F4C5F1C8
:1002A00020051EBF22FA05FC44EA0C04203556EA5C
:1002B000044C4FEA144418BF641C4FF000084FF080
:1002C0000009904271EB030C39D3002919BFB1FA30
:1002D00081F701FA07F6B0FA80F700FA07F6C7F1DE
:1002E00020071EBF20FA07FC46EA0C062037B6FBA3
:1002F000F4FCA7EB0507103F07F01F0BCBF120061E
:100300000CFA0BFB2CFA06F644BFB3460026202F4E
:10031000A4BF5E464FF0000B5BEA060C08BF4FF02F
:10032000010B19EB0B09ABFB027C48EB0608C01B69
:1003300006FB02CC0BFB03CC71EB0C01C1E70B46B7
:10034000024641464846BDE8F08B13B54FF0000029
:100350004FF00001AFF30080BDE81C407047000083
:100360000FB41CB5074B06AA7B446946009005985C
:1003700000F0B5F80020694600F0C4F81CBC5DF838
:1003800014FB0000990100002DE9F0410E460446DF
:10039000002020622046E168884730B3252805D038
:1003A000D4E901219047206A401CF2E7E168204629
:1003B00000278847050018D0A5F14100192802D868
:1003C00020354FF400673246294620462760FFF764
:1003D00015FF40B1012804D0F61D26F007060836A7
:1003E000D8E7361DD6E72846DAE7206ABDE8F0816F
:1003F00070B50C460546012A05D02878800600D540
:10040000EA69002302E0012305E05B1C934202D26B
:10041000E05C0028F9D1A869E618C01AA861286A2A
:10042000184428622846AFF3008004E0D5E9012192
:1004300014F8010B9047B442F8D32846AFF300807C
:1004400070BD10B5431C02E010F8011B71B18107AB
:10045000FAD14FF0013202C88C1A8C4314EAC2114F
:10046000F9D0C01A0A0603D0C01E10BDC01A10BDB4
:100470000A0401D0801E10BD0902FCD0401E10BD30
:100480004FF0000200B5134694469646203922BF2D
:10049000A0E80C50A0E80C50B1F12001BFF4F7AF78
:1004A000090728BFA0E80C5048BF0CC05DF804EB5A
:1004B000890028BF40F8042B08BF704748BF20F8C8
:1004C000022B11F0804F18BF00F8012B70477047C6
:1004D0007047704701694A1C02610878704700B58F
:1004E0008FB0CDE901310021059105497944CDE96D
:1004F000031011466846FFF747FF0FB000BD00002C
:10050000E5FFFFFF0A6802F8010B0A60704710B5AB
:10051000436913B1AFF3008001E0FFF769FF0120E9
:1005200010BD127800F124010A7000224A700122E5
:10053000EDE711684FF0FF32E9E7754600F02CF85F
:10054000AE4605006946534620F00700854618B0C0
:1005500020B5FFF77BFEBDE820404FF000064FF0CE
:1005600000074FF000084FF0000B21F00701AC46E8
:10057000ACE8C009ACE8C009ACE8C009ACE8C00907
:100580008D46704710B50446AFF300802046BDE8A5
:100590001040FFF747BE0000004870479000002061
:1005A00001491820ABBEFEE7260002007047FEE7B7
:1005B0007047000072B6074C074D2021204600F01E
:1005C00073F90028F9D001222021284600F071F9A2
:1005D000F3E7000000140240000002402DE9F04162
:1005E0000446876D00F06AF9064694F83500002548
:1005F000022806D08020606584F834500120BDE8D0
:10060000F0812068016821F01601016020684169CD
:1006100021F080014161206C08B9A06C20B12068F4
:10062000016821F0080101602068016821F00101E2
:1006300001600CE000F042F9801B052807D920205A
:100640006065032084F8350084F83450D7E72068CB
:100650000068C007EED194F85C103F208840B86075
:10066000012084F8350084F834500020C7E790F862
:100670003510022903D080214165012070470521F2
:1006800080F835100068016821F001010160002048
:100690007047000070B5044600F010F90546601C74
:1006A00002D004480078044400F008F9401BA0423E
:1006B000FAD370BD040000202DE9F84FDFF8BCA18B
:1006C0000022012503264FF00F090AF1040BAAF1BD
:1006D000040E00BF0B6805FA02F42340A34270D158
:1006E0000F7907F00307012F01D0022F16D1876879
:1006F0004FEA420806FA08FC27EA0C07D1F80CC0BA
:100700000CFA08FC4CEA070CC0F808C04768A7437D
:100710000C79C4F3001494403C4344600C79E443E6
:10072000A4070AD0C4684FEA420C06FA0CF7BC438F
:100730008F6807FA0CF72743C7600C7904F00304AD
:10074000022C12D1D40800EB840CDCF820405707AF
:10075000FF0E09FA07F824EA0804D1F8108008FA15
:1007600007F848EA0408CCF8208004684FEA420CF5
:1007700006FA0CF7BC430F7907F0030707FA0CF7EA
:10078000274307604C6814F4403F70D03C4C276806
:1007900047F480472760246822F0030704F480446C
:1007A0000094384C07EB040CDCF8084897074FEA34
:1007B000177809FA08F7BC43334FB84202D1002733
:1007C00024E054E0314FB84201D101271EE0304F00
:1007D000B84201D1022719E02E4FB84201D10327B8
:1007E00014E02D4FB84201D104270FE02B4FB8423F
:1007F00001D105270AE02A4FB84201D1062705E0BA
:10080000284FB84201D1072700E0082707FA08F768
:100810002743CCF80878DAF800405746D1F804C0EE
:100820009C435FEACC2C00D51C433C60DBF80040C5
:100830005F46D1F804C09C435FEA8C2C00D51C4372
:100840003C60DEF800407746D1F804C09C435FEA84
:100850008C3C00D51C433C60084F083F3C68D1F8F5
:1008600004C09C435FEACC3C00D51C433C60521C56
:10087000102AFFF42FAFBDE8F88F0000083C0140BC
:1008800044380240003001400000024000040240B1
:1008900000080240000C0240001002400014024018
:1008A00000180240001C02400069084000D00120EE
:1008B00070470AB1816170470904FBE7014880680D
:1008C000704700000400002002488168027811444B
:1008D00081607047040000200B4810B5016841F4A6
:1008E00000710160016841F480610160016841F4B8
:1008F00080710160032000F06FF80F2000F006F80F
:1009000000F024F8002010BD003C024070B50D4DF1
:1009100004464FF47A712878B1FBF0F00A4909686F
:10092000B1FBF0F000F00CFB48B9102C07D200220C
:100930002146501E00F030F800206C6070BD012090
:1009400070BD000004000020100000200A4808B517
:10095000016841F480410160006800F4804000902B
:100960000548001F016841F080510160006800F0F7
:100970008050009008BD000044380240002809DB88
:1009800000F01F02012191404009800000F1E020A9
:10099000C0F8001170470000F0B40E4B1B680C4605
:1009A000C3F30223C3F10705042D00D90425191D43
:1009B000072901D2002300E0DB1E012606FA05F11B
:1009C000491E214099409E40761E16403143F0BC9E
:1009D00000F0E5BE0CED00E0064900F007020868F3
:1009E0004FF6FF03184040EA0220034A1043086014
:1009F000704700000CED00E00000FA052DE9F0471B
:100A00000E46050065D0DFF81481D8F80000F7B273
:100A100000F00700B04207D288F80070D8F8000054
:100A200000F00700B04254D128683D4C810712D530
:100A3000400703D5206840F4E05020602878000784
:100A400003D5206840F4604020602068A96820F049
:100A5000F000084320602878C0072DD0304968682E
:100A60000839012812D0022813D0032811D00968B0
:100A7000890700292DDA216821F003010143216053
:100A8000FFF71CFF814641F2883A0EE009688903AE
:100A9000EFE709688901ECE7FFF710FFA0EB090118
:100AA000514502D90320BDE8F0872068696800F04D
:100AB0000C00B0EB810FEFD1D8F80010404601F0E8
:100AC0000701B14207D90770006800F00700B04283
:100AD00001D00120E7E72878400705D52068E968BC
:100AE00020F4E050084320602878000706D52068ED
:100AF000296920F4604040EAC100206000F038F825
:100B00002168084AC1F30311515CC84006490860D6
:100B100006480068FFF7FAFE0020C4E7003C0240E8
:100B20000838024042190008100000200800002088
:100B30000448054900680968044AC1F38221515CF0
:100B4000C8407047100000200838024052190008C1
:100B50000448054900680968044AC1F34231515C00
:100B6000C8407047100000200838024052190008A1
:100B7000154810B5006810F00C02144813D0144941
:100B8000042A0FD0082A0ED10F4C241F2268236894
:100B900002F03F025B0207D52068C0F38810A0FB7B
:100BA000010106E0084610BD2168C1F38811A1FBD0
:100BB00000010023FFF75CFB2168C1F30141491CE0
:100BC0004900B0FBF1F010BD083802400024F400E9
:100BD00040787D012DE9F84F04006ED02078DFF8D1
:100BE0004C93C007A9F104054AD009F1040001683B
:100BF000C1F38101012908D00068C0F381000228F7
:100C00000AD1D9F80000400206D52868800337D5FC
:100C100060680028E1D033E06068B0F5803F10D014
:100C2000B0F5A02F286810D020F480302860286804
:100C300020F4802028606068A8B1FFF73FFE0646D8
:100C40000DE0286840F48030F4E740F4802028600C
:100C5000F7E700BFFFF732FE801B642873D82868CF
:100C60008003F7D50CE0FFF729FE064605E000BF3C
:100C7000FFF724FE801B6428F0D828688003F7D48F
:100C80002078DFF8AC8280074FF0000A3ED5A748F5
:100C9000001D016811F00C0F08D00068C0F381003E
:100CA00002280BD1D9F80000400207D42868800739
:100CB00016D5E068012800D112E033E1E068B8B150
:100CC0000120C8F80000FFF7F9FD064605E000BF67
:100CD000FFF7F4FD801B0228C0D828688007F7D5ED
:100CE0002868216920F0F80040EAC10028600DE082
:100CF000C8F800A0FFF7E2FD064604E0FFF7DEFDBE
:100D0000801B02281FD828688007F7D420780007A6
:100D100022D5864F87486169703771B10121016022
:100D2000FFF7CCFD064604E0FFF7C8FD801B022854
:100D300009D838688007F7D50EE0C0F800A0FFF7A3
:100D4000BDFD064605E082E0FFF7B8FD801B0228E6
:100D50007DD838688007F7D42078400768D5DFF859
:100D6000CCB100270BF13C0BDBF80000C0000BD42A
:100D7000DBF8001041F08051CBF80010DBF80000E8
:100D8000012700F0805000906B4E3068C00510D4F1
:100D9000306840F480703060FFF790FD009005E00F
:100DA000FFF78CFD0099401A022850D83068C00522
:100DB000F6D55E4EA0686C3601280FD00528306845
:100DC00010D020F001003060306820F00400306066
:100DD000A068B8B1FFF772FD00900FE0306840F0F6
:100DE0000100F4E740F004003060F7E7FFF766FD2C
:100DF0000099411A41F28830814266D830688007F4
:100E0000F4D50EE0FFF75AFD009007E0FFF756FD1E
:100E10000099411A41F28830814256D830688007E3
:100E2000F4D42FB1DBF8001021F08051CBF8001082
:100E3000A069C8B33D49091D0968C1F381010229B0
:100E40004AD00228504607D0C8F8600000E03CE0D5
:100E5000FFF734FD04463BE04746C8F86000FFF763
:100E60002DFD064605E000BFFFF728FD801B022888
:100E70002BD828688001F7D4D4E907010843A16A78
:100E80002E4A490802EB0141626A41EA8211084395
:100E900094F82C1040EA0161C9F80010012038666E
:100EA000FFF70CFD044606E03EE000BFFFF706FD3D
:100EB000001B022809D828688001F7D534E000BF5C
:100EC000FFF7FCFC001B022802D90320BDE8F88FC5
:100ED00028688001F4D427E00128F7D0D9F8000071
:100EE000E26900F4800191421CD1226A00F03F01C6
:100EF000914217D147F6C071626A0140B1EB821F7F
:100F000010D1A26A4FF0FF3300F4403103EB5202DC
:100F1000B1EB024F06D194F82C1000F07060B0EBEA
:100F2000016F01D00120D1E70020CFE70438024053
:100F300000004742800E4742007000400000FFFF63
:100F400010B5401EB0F1807F01D3012010BD4FF0DD
:100F5000E02460610F21601700F021FC0020A061F7
:100F600007202061002010BD70477047F8B5016868
:100F700004460868CA684B6910F00F0F4FF000056F
:100F800059D003F0010602F49077374365D0C107CA
:100F900005D0D10503D5616C41F0010161644107C1
:100FA00005D5D90703D0616C41F002016164810766
:100FB00005D5D90703D0616C41F0040161640107D4
:100FC00007D502F02001314303D0616C41F00801E4
:100FD0006164616C00293AD0800604D5900602D580
:100FE000204600F0B4FA20684069616CC0F38010BC
:100FF000090700D460B3204600F082FA20684069F7
:10100000400621D52068143050E8001F21F040012F
:1010100040E80012002AF5D1E06BA8B16E490165E5
:10102000E06BFFF724FB002811D0E06B016D01B0ED
:10103000BDE8F040084783060FD593060DD520463E
:10104000BDE8F84000F083BA2046FFF78EFFF8BDF8
:101050002046FFF78AFF6564F8BD266B2023012E2A
:101060007DD1C6067BD5D60679D50868486800903C
:1010700048694FF00206400641D5E16B08684068B8
:101080000004000CE8D0A28D8242E5D9E085C86951
:10109000B0F5807F2DD020680C3050E8001F21F47F
:1010A000807140E80012002AF5D12068143050E821
:1010B000001F21F0010140E80012002AF5D120684C
:1010C000143050E8001F21F0400140E80012002ACF
:1010D000F5D184F84230256320680C3050E8001FB9
:1010E00021F0100140E80012002AF5D1E06BFFF773
:1010F00075FA6663A08DE18D401A81B22AE0A08D59
:10110000E18D401A81B2E08D0028A5D00029A3D03E
:1011100022680C3252E8000F20F4907042E8000779
:10112000002FF5D12068143050E8002F22F0010282
:1011300040E80027002FF5D184F84230256320686D
:101140000C3050E8002F22F0100240E80023002B62
:10115000F5D166632046FFF707FFF8BDFFE70506F8
:101160002BD5150629D594F841002128F5D1A06882
:10117000B0F5805F01D12069B0B1206A411C2162C5
:10118000216800784860E08C401E0004000CE08478
:10119000E3D12068C16821F08001C1602068C16886
:1011A00041F04001C160D8E7206A0088C0F3080020
:1011B0004860206A801C2062E5E74006CDD55006D5
:1011C000CBD5CA68204622F04002CA6084F841307C
:1011D00000F0C5F8C1E70000F114000870B5040084
:1011E00004D094F84100002510B106E0012070BD44
:1011F00084F84050204600F023F8242084F8410071
:101200002068C16821F40051C160204600F000FA56
:101210002068016921F4904101612068416921F051
:101220002A0141612068C16841F40051C1606564D0
:10123000202084F8410084F842006563002070BDDE
:1012400010B586B0044614216846FFF719F918490D
:101250002068884229D117480021026842F0100214
:101260000260006800F0100005901248143802680F
:1012700042F001020260006800F0010005904FF4A6
:10128000C06000900220CDE90101032003900720F7
:10129000049069460848FFF70FFA002211462520FE
:1012A000FFF77AFB2520FFF769FB06B010BD0000B1
:1012B00000100140443802400000024070472DE910
:1012C000F843044690F84100984616460D462028FB
:1012D00002D00220BDE8F88385B17EB100206064B1
:1012E000212084F84100FFF7E9FAA6848146E684CC
:1012F000A0682027B0F5805F02D003E00120E9E775
:10130000206910B12E4600250EE000260CE0802159
:10131000204600F003FAA8B9C6B116F8010B2168FF
:101320004860E08C401EE084E08C4B464FF00002A9
:10133000CDF800800028EAD14FF04001204600F0AF
:10134000EDF940B184F841700320C3E735F8020B92
:10135000C0F30800E3E784F841700020BAE7704763
:10136000FEE7000030B587B014216846FFF788F823
:1013700022480024016841F020010160016801F069
:1013800020010591016841F001010160016801F04F
:1013900001010591016841F0400101600068184DAC
:1013A00000F040000590002280212846FFF781FAD6
:1013B0003820CDE90004694628460294FFF77CF9FD
:1013C000802000900120CDE90104022003906946AD
:1013D0002846FFF771F90320CDE900046946094862
:1013E0000294FFF769F94FF48440CDE9000469469F
:1013F00005480294FFF760F907B030BD303802406D
:101400000014024000000240001802400C4810B5D1
:101410000A4901604FF4E1314160002181600C22F2
:10142000C160C0E904128161C161FFF7D7FE0028E5
:1014300003D0BDE81040FFF7BDB810BD001001405B
:1014400048000020FEE7FEE770477047FFF73CBA10
:1014500030B593B030216846FFF712F814210CA87C
:10146000FFF70EF81C480025016841F0805101602B
:10147000006800F0805011901848016841F48041E4
:1014800001600068022400F4804011900120039064
:1014900010200490009406940820CDE90750A8205D
:1014A000CDE9090404200B906846FFF793FB70B95F
:1014B0000CA90F2081E831004FF4A0500F90E002FA
:1014C000109005210CA8FFF799FA002801D0FFF72A
:1014D00071F813B030BD0000403802400070004089
:1014E0000248016841F470010160704788ED00E036
:1014F00010B5806B0021C185C184FFF736FD10BD9A
:1015000001680C3151E8002F22F4907241E8002369
:10151000002BF5D10168143151E8002F22F00102AF
:1015200041E80023002BF5D1016B012909D10168A5
:101530000C3151E8002F22F0100241E80023002B6B
:10154000F5D1202180F8421000210163704708B5D1
:1015500090F84210222901D0022008BD82684FF481
:1015600080539A4201D1016921B1816A9A421BD00C
:101570004AB10AE00268816A5268C2F308020A802E
:10158000816A891C08E0026972B10268526802F03F
:101590007F020A70816A491C8162C18D491E09045B
:1015A000090CC18503D01BE002685268F1E70168AD
:1015B000CA6822F02002CA600168CA6822F48072F8
:1015C000CA6001684A6922F001024A61202180F85C
:1015D000421000214163026B012A03D0FFF76EFE27
:1015E000002008BD016301680C3151E8002F22F092
:1015F000100241E80023002BF5D101680A68D206E9
:1016000002D50A6849680091818DFFF7ADFCE7E7D4
:1016100070B5044600680169E26821F44051114345
:1016200001612169A068E2690843616911430843C7
:101630002168CA6849F20C639A430243CA60206871
:101640004169A26921F44071114341613149206827
:10165000884202D03049884202D1FFF779FA01E08E
:10166000FFF766FAE2690023192164253226B2F5F4
:10167000004F626828D0A0FB0101930F9200FEF793
:10168000F7FD0146B0FBF5F06FF01802504301EB97
:10169000800006EB0010B0FBF5F000F0F002B1FBAB
:1016A000F5F002EB0012B1FBF5F06FF018035843B0
:1016B00001EB800006EB0010B0FBF5F000F00F002E
:1016C00021681044886070BDA0FB010192185B4145
:1016D000FEF7CEFD0146B0FBF5F00201B1FBF5F0DF
:1016E0006FF01803584301EB800006EBC000B0FB1D
:1016F000F5F000F0F80002EB4002B1FBF5F05843C2
:1017000001EB800006EBC000B0FBF5F000F0070035
:10171000D6E7000000100140001401402DE9F84315
:10172000984617460D460446089E24E0701C22D0B9
:10173000FFF7C4F8A0EB0800B0421AD8CEB1206879
:10174000C168490717D5802D15D0402D13D00168E9
:10175000C94309070FD4016800254068009020465E
:10176000FFF7CEFE0820606484F840500120BDE8F9
:10177000F8830320FBE72068006835EA000004D006
:101780000020B842D2D00020F1E70120F9E70000A4
:101790000148FFF7EBBB000048000020FEE7090707
:1017A000090E002804DB00F1E02080F800147047E7
:1017B00000F00F0000F1E02080F8141D70470000D9
:1017C00086B0FFF789F8FFF743FEFFF7CBFDFFF781
:1017D0001DFE4C4FDFF830814C4D4D4C4FF0000951
:1017E0004FF4007A4FF4804B84F800902021284673
:1017F000FFF75AF818B9207840F001002070022154
:101800003E463846FFF750F818B9207840F00200FD
:10181000207001213046FFF747F818B9207840F0D2
:101820000400207010212846FFF73EF818B92078F0
:1018300040F00800207008212846FFF735F818B955
:10184000207840F010002070514646464046FFF791
:101850002BF818B9207840F0200020705946304607
:10186000FFF722F818B9207840F040002070207867
:101870006178884235D0A0B3410601D5312100E01E
:101880003021820601D5312200E03022C30601D585
:10189000312300E03023060701D5312600E0302651
:1018A000CDE90321CDE90163410701D5312100E0F4
:1018B00030210091810701D5312300E03023C0079A
:1018C00001D0312200E0302212A11948FEF748FD74
:1018D0001748FEF7B6FD82B2642315491548FFF795
:1018E000EEFC2078C00701D0012200E00022802118
:1018F0002846FEF7DEFF207860703220FEF7CAFE31
:1019000072E700000000024000180240001402408C
:101910000000002053656E736F72733A20256325B3
:1019200063256325632563256325630D0A00000095
:1019300014000020480000204FF04070E1EE100A33
:1019400070470000000000000000010203040607C9
:101950000809000000000102030400007C190008CF
:101960000000002014000000C401000890190008C5
:1019700014000020DC060000E00100080000000068
:101980000100000010000000000000000024F4002E
:040000050800018965
:00000001FF
