:020000040800F2
:10000000F80C002029020008FD2D0008D528000862
:10001000F92D0008210400083D3D00080000000003
:10002000000000000000000000000000D5350008BE
:10003000250400080000000001350008093600080A
:10004000430200084302000843020008C5350008C7
:100050004302000843020008430200082904000884
:10006000430200084302000843020008430200085C
:10007000430200084302000843020008430200084C
:10008000430200084302000843020008430200083C
:10009000430200084302000843020008430200082C
:1000A000C936000801370008E53600084302000899
:1000B00011370008213700084302000843020008F6
:1000C00043020008430200084302000843020008FC
:1000D00043020008253D00084302000843020008CF
:1000E00043020008430200084302000843020008DC
:1000F00043020008430200084302000843020008CC
:1001000043020008430200084302000843020008BB
:1001100043020008430200084302000843020008AB
:10012000430200084302000843020008430200089B
:10013000430200084302000843020008430200088B
:10014000430200084302000843020008430200087B
:10015000430200084302000843020008430200086B
:10016000430200084302000843020008430200085B
:100170004302000843020008430200080000000098
:10018000430200084302000800F002F800F03CF8C7
:100190000AA090E8000C82448344AAF10107DA45E2
:1001A00001D100F031F8AFF2090EBAE80F0013F0F8
:1001B000010F18BFFB1A43F001031847BC510000A0
:1001C000DC510000103A24BF78C878C1FAD8520731
:1001D00024BF30C830C144BF04680C6070470000C1
:1001E0000023002400250026103A28BF78C1FBD840
:1001F000520728BF30C148BF0B6070471FB504F0DD
:1002000088FC1FBD10B510BD00F0D4F81146FFF7F3
:10021000F5FF03F0CFFD00F0F2F803B4FFF7F2FFB3
:1002200003BC00F0F5F80000094880470948004782
:10023000FEE7FEE7FEE7FEE7FEE7FEE7FEE7FEE796
:10024000FEE7FEE704480549054A064B70470000F3
:10025000B536000889010008F8060020F80C0020D7
:10026000F8080020F808002053EA020C00F069802A
:100270002DE9F04B4FF00006002B1FBFB3FA83F5BA
:1002800003FA05F424FA05F65E4012BF1643B2FAEB
:1002900082F502FA05F4C5F120051EBF22FA05FC1D
:1002A00044EA0C04203556EA044C4FEA144418BFC3
:1002B000641C4FF000084FF00009904271EB030CF2
:1002C00039D3002919BFB1FA81F701FA07F6B0FA5C
:1002D00080F700FA07F6C7F120071EBF20FA07FCD7
:1002E00046EA0C062037B6FBF4FCA7EB0507103FE7
:1002F00007F01F0BCBF120062CFA06F60CFA0BFBCD
:1003000044BFB3460026202FA4BF5E464FF0000B2B
:100310005BEA060C08BF4FF0010B19EB0B0948EB29
:100320000608ABFB027C06FB02CC0BFB03CCC01B1C
:1003300071EB0C01C1E70B46024641464846BDE859
:10034000F08B13B5084318BF4FF0FF300146AFF3F1
:100350000080BDE81C4070474FF0000200B5134616
:1003600094469646203922BFA0E80C50A0E80C50D5
:10037000B1F12001BFF4F7AF090728BFA0E80C5086
:1003800048BF0CC05DF804EB890028BF40F8042B7F
:1003900008BF704748BF20F8022B11F0804F18BFEC
:1003A00000F8012B7047704770477047004870474E
:1003B000280000207546FFF7F9FFAE4605006946A4
:1003C000534620F00700854618B020B5FFF73AFFE6
:1003D000BDE820404FF000064FF000074FF0000846
:1003E0004FF0000BAC46ACE8C009ACE8C009ACE883
:1003F000C009ACE8C00921F007018D46704710B56F
:100400000446AFF300802046BDE81040FFF705BF6B
:1004100001491820ABBEFEE726000200704700002D
:10042000FEE700007047000080B540F20850C2F2BD
:100430000000006819214163022000F0ABF880BD84
:1004400072B600BFFEE7000070B5866D044600F08E
:1004500091F994F83510022925D105462068216CC0
:10046000026822F016020260426922F080024261B4
:1004700009B9A16C19B1016821F008010160016896
:1004800021F00101016000BF20680068C0070ED0A4
:1004900000F070F9401B0628F6D320206065032089
:1004A00084F835000CE080206065012008E0E06DF4
:1004B0003F2101FA00F0B060012084F835000020EF
:1004C000002184F8341070BD90F83510022909D14C
:1004D000052180F835100068016821F001010160F4
:1004E000002070478021416501207047B0B5044667
:1004F00000F040F940F27465C2F200052968401A24
:10050000C9283ED300F036F9022C286018BFB0BDD0
:1005100040F20044C4F202042046402100F01CF9DD
:100520002046802100F018F904F58060802100F059
:1005300013F920464FF4807100F00EF92046802117
:1005400000F004F90FA1012808BF0431086840F247
:100550007861C2F20001086020464FF4807100F01B
:10056000F5F80AA1012808BF0431086840F2B46117
:10057000C2F20001086040F2E460C2F20000002113
:100580000160B0BDBC74933DDF4F8D3D9A99993E9B
:100590003D0A973E80B543F61441C4F201010A6852
:1005A000024208BF80BD0860FFF7A0FF80BD0000C9
:1005B0002DE9F04F83B000F13E4202F1FF724FEAA5
:1005C000B22241F600470192C4F2020708224FF01E
:1005D000010E00254FF0000A4FF00008B84208BF96
:1005E000072200920AE000BF08F101080AF1040A9C
:1005F000B8F1100F05F1020500F0A4800C680EFAA6
:1006000008FB14EA0B09EFD04C6804F0030CACF1C2
:10061000010EBEF1010F11D80322876802FA05F618
:10062000CA68B743AA403A4382604268C4F30017DD
:1006300022EA0B0207FA08F73A434260BCF1030FC3
:100640001CD0C26803238E6803FA05F7BA4306FA82
:1006500005F73A43BCF1020FC2600FD16FF00302FD
:1006600002EA580202440AF01C060F23176A03FA32
:1006700006F40B69A743B3403B43136202680323AC
:100680004F68AB409A4307F00303AB401A4317F49B
:10069000403F4FF0010E0260A6D0002243F6440313
:1006A0000292C4F202031A6843F6004442F4804204
:1006B0001A601A68C4F2010402F480420292029A9B
:1006C00028F003024FF6084B2244CFF6FF7B52F886
:1006D0000B300AF00C070F26BE4023EA060C019BE4
:1006E000009E072B38BF1E4606FA07F747EA0C03A1
:1006F00042F80B30A2684B6842EA090743F60C4CFB
:10070000DE0258BF22EA0907A760C4F2010CDCF838
:1007100000209E0242EA090758BF22EA0907CCF8E6
:10072000007062689E0342EA090758BF22EA09077F
:1007300067602268DB0342EA090358BF22EA090323
:10074000236051E703B0BDE8F08F00000069084066
:1007500018BF012070470000426902EA010391437B
:1007600041EA034181617047002A08BF09048161A1
:100770007047000040F2F460C2F200000068704769
:1007800040F21E0040F2F461C2F20000C2F2000129
:1007900000780A68104408607047000080B543F68E
:1007A0000040C4F20200016841F400710160016878
:1007B00041F480610160016841F4807101600320AF
:1007C00000F064F8002000F005F800F02BF800209D
:1007D00080BD0000B0B540F21E02C2F2000240F23D
:1007E00000011278C2F200014FF47A730968B3FB7A
:1007F000F2F20446B1FBF2F1084600F015FE0F2CB0
:100800004FF001050CD858B94FF0FF3021460022B7
:10081000002500F02BF840F22000C2F20000046036
:100820002846B0BD80B582B0002043F6400101905B
:10083000C4F202014A6842F480424A604A6802F403
:1008400080420192019A0090086840F08050086050
:10085000086800F0805000900098052000F016F81D
:1008600002B080BD80B503F06BFA80BD70B5144650
:100870000D46064603F074FA2946224602F0C0FAF5
:100880000146304603F074FA70BD000080B503F0F5
:1008900081FA80BDF0B581B00446007810F0050FF4
:1008A0002CD06827C4F2472743F670060020C4F214
:1008B00002063860FFF75EFF054600BF56F8700C71
:1008C000000105D5FFF756FF401B0228F6D93FE08F
:1008D000D4E90110000740EA8110706101203860FE
:1008E000FFF748FF054600BF56F8700C000105D41D
:1008F000FFF740FF401B0228F6D929E02078800747
:100900004FF0000057D543F67006C4F2020600907F
:1009100056F8300C47F2000740F0805046F8300C93
:1009200056F8300CC4F2000700F080500090009898
:10093000386840F480703860FFF71CFF054600BF40
:100940003868C00507D4FFF715FF401B0228F7D908
:10095000032001B0F0BD306810F4407013D0E1689E
:1009600001F4407188420ED0306840F64061C4F214
:100970004721012220F440700A6000220A603060A2
:100980003068C00719D1E06856F8681C4FF6FF437D
:1009900000F4407221F4F811C0F6FF730340B2F581
:1009A000407F08BF194346F8681C31686FF31F3059
:1009B00008433060002001B0F0BDFFF7DBFE0546C4
:1009C00041F2883730688007DDD4FFF7D3FE401B43
:1009D000B8424FF00300F5D9EDE700002DE9F041F2
:1009E000002800F08B8043F60808C4F20208044691
:1009F000D8F8F8030D4600F00700884207D288F8BF
:100A0000F853D8F8F80300F00700A84276D1206820
:100A1000810717D5410705D5D8F8001041F4E051FA
:100A2000C8F80010010705D5D8F8001041F460415E
:100A3000C8F80010D8F80010A26821F0F0011143A6
:100A4000C8F80010C0073FD1D8F8F80300F007003D
:100A5000A84207D988F8F853D8F8F80300F007003F
:100A6000A8424BD12068410707D5D8F80010E268AA
:100A700021F4E0511143C8F80010000708D5D8F858
:100A80000000216920F4604040EAC100C8F800007D
:100A900000F07EF8D8F8001044F63632C1F30311A6
:100AA000C0F60002515C40F2000220FA01F140F26F
:100AB0002000C2F200000068C2F200021160FFF7DD
:100AC00089FE0020BDE8F0816068811E022907D2FE
:100AD00058F8081C89015CBF0120BDE8F08110E0D6
:100AE000012807D158F8081C89035CBF0120BDE824
:100AF000F08106E058F8081C890702D40120BDE8FF
:100B0000F081D8F8001021F003010843C8F8000074
:100B1000FFF730FE064641F2883700BFD8F80000E4
:100B2000616800F00C00B0EB810F8DD0FFF722FE62
:100B3000801BB842F2D90320BDE8F08140F20000EA
:100B4000C2F200000068704780B5FFF7F7FF43F678
:100B50000801C4F20201096844F64632C1F3822159
:100B6000C0F60002515CC84080BD000080B5FFF7B0
:100B7000E5FF43F60801C4F20201096844F6463273
:100B8000C1F34231C0F60002515CC84080BD000094
:100B900010B543F60404C4F20204606800F00C00CF
:100BA00008280AD0042819BF42F20040C0F2F4001D
:100BB00047F64000C0F27D1010BD20682168236810
:100BC000490247F64001C0F27D1100F03F02C3F335
:100BD00088105CBF42F20041C0F2F401A1FB0001A9
:100BE0000023FFF741FB21680222C1F3014102EB20
:100BF0004101B0FBF1F010BD2DE9F04182B00028B9
:100C000000F0A2800446007843F60006C007C4F254
:100C1000020643D0B06800F00C00042805D130680B
:100C200080033BD56068C8BB8EE0B06800F00C0064
:100C3000082802D170684002F1D46568B5F5A02F8C
:100C40000AD0B5F5803F0BD0306820F4803030609A
:100C5000306820F4802006E0306840F48020306066
:100C6000306840F480303060FFF784FD002D054689
:100C700011D000BF3068800310D4FFF77BFD401B0C
:100C80006428F7D922E100BFFFF774FD401B6428F8
:100C90004FF0030055D830688003F5D420788007E2
:100CA0001AD5B06810F00C0F09D0B06800F00C0035
:100CB000082840F08A807068400200F18680306821
:100CC000800702D5E06801283ED13068216920F014
:100CD000F80040EAC10030602078000738D420785E
:100CE00040074CD4A5695DB3B06800F00C0008283B
:100CF00040F09E80012D27D07068E16900F48002E9
:100D00008A4221D1216A00F03F028A421CD147F673
:100D1000C071626A0140B1EB821F15D1A26A002343
:100D2000CFF6FF7303EBC23200F440316FF30F02D2
:100D3000914209D1E16A00F07060B0EB016F03D11C
:100D4000002002B0BDE8F081012002B0BDE8F081D2
:100D50006069002840F20000C4F2472057D001210A
:100D6000C0F8801EFFF706FD054600BF706F8007C4
:100D7000B5D4FFF7FFFC401B0228F7D9A6E0306C82
:100D800010F080580AD100200190306C40F0805063
:100D90003064306C00F080500190019847F20007F9
:100DA000C4F200073868C00524D4386840F4807065
:100DB0003860FFF7DFFC05463868C0051AD4FFF736
:100DC000D9FC401B0228F7D980E0E068002851D008
:100DD0000020C4F2472001210160FFF7CBFC05464B
:100DE000306880073FF571AFFFF7C4FC401B022855
:100DF000F6D96BE0A568052D50D0012D52D0306F8B
:100E000020F001003067306F20F004004DE0002139
:100E1000C0F8801EFFF7AEFC054600BF706F80076C
:100E20007FF55DAFFFF7A6FC401B0228F6D94DE029
:100E30000027C4F2472700203866FFF79BFC022DED
:100E400005460BD13068800158D5FFF793FC401B55
:100E500002284FF00300F5D973E700BF3068800126
:100E60007FF56EAFFFF786FC401B02284FF00300B2
:100E7000F4D966E70020C4F2472000210160FFF7A3
:100E800079FC0546306880077FF526AFFFF772FCD6
:100E9000401B02284FF00300F4D952E7306F40F0B6
:100EA00004003067306F40F001003067FFF762FCEC
:100EB000002D054641F2883714D000BF306F8007FF
:100EC00013D4FFF757FC401BB842F7D9032002B0F8
:100ED000BDE8F081FFF74EFC401BB8424FF0030025
:100EE0003FF62FAF306F8007F4D4B8F1000F7FF4D6
:100EF000F9AE306C20F080503064F3E604F11C054C
:100F00002FCD08430021CFF6FF7140EA821001EB9C
:100F1000C3316FF30F0140EA0560084370600120A0
:100F20003866FFF727FC0446306880013FF508AFBC
:100F3000FFF720FC001B02284FF00300F4D900E764
:100F400010B581B040F20003C2F20003D3F800C034
:100F500044F6D353C1F26203ACFB033C4FEADC2CF2
:100F60004FF47A730CFB03FECDF800E0037F4FF0E3
:100F7000020C012B50D00123037780F81DC00468B8
:100F8000CA23636253236362A3685B0508D500BF6D
:100F9000009B013B0093009BB3B3E3685B07F7D46E
:100FA000A36823F48063A360E36863F4906323F48D
:100FB0008063E360CDF800E0009B013B0093009B61
:100FC00013B3E3685B07F7D5A3684FF0000C23F079
:100FD0000703A360A3681A43A260616143F600415E
:100FE000C4F201010A6842F480020A608A6842F48D
:100FF00080028A60A16841F48041A160A16841F447
:101000008061A160012102E003214FF0030CFF2267
:101010006262417700210177604601B010BD000097
:101020002DE9F0418AB005A9002204464FF00008DE
:1010300000F09AF810B10AB0BDE8F08104A920468A
:10104000002200F06FF89DF814104CF6CD42C8B2A3
:10105000CCF6CC429DF81540A0FB02039DF816008B
:10106000E5B2A5FB0256C5B2A5FB0225302202EB74
:10107000D307DB0803EB8303A1EB430141F030010D
:101080008DF807103A218DF808108DF80B10E9083B
:1010900001EB8101A0EB410040F27061F308C2F264
:1010A000000103EB83030978A4EB43038DF806707A
:1010B00002EBD60743F0300302EBD50240F03000DC
:1010C00000298DF809708DF80A308DF80C208DF804
:1010D0000D008DF80E80AED040F22860C2F2000004
:1010E0000DF106010A2201F0D7FB0AB0BDE8F0813C
:1010F00010B5044643F61440C4F201004FF48001D9
:1011000001602068C168490508D5C16861F4906133
:1011100021F48061C1602046FFF782FF01206077E3
:1011200010BD000070B500680C4643684FEA1340DC
:10113000C3F3042603F03F05C8704E708D70C3F3EF
:10114000423121700AB1002070BDC0B202F0DAF95C
:10115000E070304602F0D6F96070284602F0D2F90D
:10116000A070002070BD000070B500680C46836A56
:101170004B6001696FF3DF31A1600168C1F3054085
:10118000C1F3062601F07F05C1F38051207066701F
:10119000A570E1700AB1002070BD02F0B3F92070B3
:1011A000304602F0AFF96070284602F0ABF9A0704B
:1011B000002070BD10B5D0B10446407F20B900209A
:1011C0002077204600F040F8022060772068C16850
:1011D000C9060ED4CA21416253214162204602F061
:1011E000B3F960B130B32168FF224A6202E0012006
:1011F00010BD0020002804BF0121617710BD94E8D4
:1012000003504FF6BF738268CFF68F731A40826027
:101210002269114362698368114319438160C0F8F0
:1012200010E0016941EA0C410161204602F0B6F983
:101230000028D8D12168A2690B6C23F480230B64A9
:101240000B6C1A430A64CEE780B584B0006842F69E
:101250000001C4F2000188424FF00000CDE9020015
:10126000CDE9000001D004B080BD022000904FF411
:10127000007003906846FFF70DFB002818BFFFF7CA
:10128000DFF840F63C60C4F24720012101600320F2
:1012900003210022FFF7EAFA0320FFF7E3FA04B084
:1012A00080BD0000F0B581B00446007F01284FF0FA
:1012B00002003FD00D4601212177607732B1687876
:1012C000E978AE78000240EA014715E06878C10687
:1012D00042BF00F0EF000A306870E87802F01CF9B5
:1012E00069780646084602F017F90102A87841EA33
:1012F000064702F011F906462068CA212D7841629E
:1013000053214162204602F01FF950B947EA060016
:1013100020F0C000216840EA45304860204602F0D5
:101320003DF9002804BF012161772168FF224A624C
:101330000021217701B0F0BD2DE9F0410446007F86
:1013400001284FF0020008BFBDE8F0810D460121E1
:10135000217760772068806800F0400052B1002853
:1013600004BF0020E87069782878AE78090241EA65
:10137000004812E0002804BF0020E870287802F03E
:10138000CBF869780646084602F0C6F80102A8784C
:1013900041EA064802F0C0F806462068CA21EF7804
:1013A000416253214162204602F0CEF8B8B948EAC2
:1013B000060047F67F7140EA8750C0F27F0122683D
:1013C00008401060906820F480209060D5E9030107
:1013D0009368084318439060204602F0DFF8002825
:1013E00004BF012161772168FF224A620021217731
:1013F000BDE8F081B0B50446006847F65F71C0F201
:101400000101C160FFF7B6F9054600BF2068C0685A
:10141000800607D4FFF7AEF9401BB0F57A7FF5D907
:101420000320B0BD0020B0BD80B502F0D5F880BD6E
:10143000704700007047000010B590F83C20012A6A
:101440004FF0020252D0012380F83C3080F83D205A
:101450000268D2F804E0D2F808C00C682EF07003DD
:10146000234341F2FF74C4F20004A24253600DDC36
:1014700040F2FF73C4F200039A4215DCB2F1804FD0
:1014800029D040F20043C4F2000322E040F2FF33CF
:10149000C4F201039A4212DC41F60003C4F20003D5
:1014A0009A4218D0002312E040F60003C4F2000371
:1014B0009A4210D040F60043C4F2000309E044F21F
:1014C0000003C4F201039A4205D040F20043C4F283
:1014D00001039A4204D149682CF0800319439160BA
:1014E0000121002280F83D1080F83C20104610BDFC
:1014F000002804BF0120704710B5044690F83D0055
:1015000028B9002084F83C00204600F01FF8022093
:1015100084F83D002068211D02F00AF9012084F8BA
:10152000460084F83E0084F83F0084F8400084F8C8
:10153000410084F8420084F8430084F8440084F8B1
:10154000450084F83D00002010BD000010B584B0B7
:10155000006844F60001C4F2010188422AD044F236
:101560000001C4F20101884235D00021C4F201011A
:10157000884248D10020039043F64400C4F20200A0
:101580000168002241F0010101600068022100F0C1
:101590000100039003981820FFF768F91820FFF75F
:1015A00061F9192002210022FFF760F91920FFF7E5
:1015B00059F90EE00020019043F64400C4F2020005
:1015C000016841F480210160006800F480200190EE
:1015D00001981A240FE00020029043F64400C4F260
:1015E00002000168182441F480310160006800F4B1
:1015F000803002900298204602210022FFF736F93F
:101600002046FFF72FF904B010BD000090F83D1000
:1016100001291CBF01207047022180F83D1000689D
:1016200041F2FF72C168C4F20002904241F0010130
:10163000C1600DDC40F2FF71C4F20001884215DC8C
:10164000B0F1804F29D040F20041C4F2000122E005
:1016500040F2FF31C4F20101884212DC41F6000180
:10166000C4F20001884218D0002112E040F60001C7
:10167000C4F20001884210D040F60041C4F20001DB
:1016800009E044F20001C4F20101884205D040F2B1
:101690000041C4F20101884206D1816801F00701CE
:1016A000062904BF00207047016841F00101016074
:1016B0000020704710B5044690F83C0001284FF018
:1016C000020008BF10BD012284F83C2084F83D00D0
:1016D00020684FF6777382689A4382600A684F2ABF
:1016E0000FDC1F2A22DD202A23D0302A21D0402AD5
:1016F0004DD14B68CA68194602F09EF92068402116
:101700003BE06F2A17DDB2F5005F20D0B2F5805FB5
:101710002AD0702A3BD1D1E9012CCB68614602F076
:10172000B3F82068816841F077011AE00AB1102A05
:101730002DD1114621E0502A18D0602A27D14B68BC
:10174000CA68194602F08AF92068602115E0D1E9DB
:10175000012CCB68614602F097F82068816841F45B
:101760008041816000200BE0002009E04B68CA68DE
:10177000194602F061F92068502102F091F800202A
:10178000012184F83D10002184F83C1010BD012097
:10179000F6E70000002804BF012070472DE9F0475C
:1017A000044690F83D000D4628B9002084F83C001E
:1017B000204600F049F8022084F83D00206844F2F9
:1017C0000702816891438160211D01F0B1FF20680B
:1017D0004FF6FF7881688269D0F820C0D5E9003ED5
:1017E000D5E9026A43EA0109AB6922EA080246EA3E
:1017F00003234FF6FC46B343D5E9076742EA0A02E2
:1018000029691A4342EA062242EA01112CF0AA028F
:101810006B6942EA0E0241EA073142EA0312C0F85C
:10182000089081610262012084F8460084F83E003D
:1018300084F83F0084F8420084F8430084F83D00B7
:101840000020BDE8F087000010B586B0006840F2C7
:101850000042C4F2000200219042CDE90411CDE91A
:101860000211019120D0B0F1804F4ED1002043F6FB
:1018700030010090C4F202010A691C2442F0010206
:101880000A610A6902F001020092009A0090086859
:1018900040F001000860086800F001000090009826
:1018A0000320019001201BE043F630000091C4F2B8
:1018B000020002691D2442F002020261026902F084
:1018C00002020092009A0091016841F0010101605A
:1018D000006800F0010000900098C02001900220F4
:1018E00002210291002103910321CDE9041000207F
:1018F000C4F2020001A9FEF75BFE2046012100228E
:10190000FEF7B4FF2046FEF7ADFF06B010BD0000A5
:1019100010B5044690F83E0094F83F2094F8423009
:1019200094F843C0042907D089B901284FF0010079
:1019300008BF012B23D010BD012A4FF0010008BFC2
:10194000BCF1010FF7D1022084F83F0012E001281A
:101950004FF0010008BF012AEDD1012BEBD1BCF102
:10196000010F18BF10BD022084F83E0084F83F002C
:1019700084F8420084F84300042907D10EE00220D5
:1019800084F83E0084F84200042907D009B90021F8
:1019900005E020680021012201F064FF0421206895
:1019A000012201F05FFF2068016841F00101016040
:1019B000002010BD70470000B0B504460068C16843
:1019C000026902EA0105A9071DD4680731D4280776
:1019D00047D4E8065CD4E80773D128067BD46806B0
:1019E00006D520686FF040010161204600F036FC0A
:1019F000A80658BFB0BD20686FF0200101612046E5
:101A0000FFF718FDB0BD6FF00201016101212177E0
:101A10008069800703D02046FFF7CCFF05E0204611
:101A200000F0B2F8204600F02DF90020207768077A
:101A3000CDD520686FF00401016102212177806912
:101A400010F4407F03D02046FFF7B4FF05E02046A6
:101A500000F09AF8204600F015F9002020772807BA
:101A6000B7D520686FF00801016104212177C069B2
:101A7000800703D02046FFF79DFF05E0204600F0D9
:101A800083F8204600F0FEF800202077E806A2D573
:101A900020686FF01001016108212177C06910F4FE
:101AA000407F03D02046FFF785FF05E0204600F089
:101AB0006BF8204600F0E6F800202077E8073FF4B6
:101AC0008CAF20686FF001010161204600F070F9D1
:101AD00028067FF584AF20686FF080010161204601
:101AE000FFF7A6FC68067FF583AF7AE780B586B07E
:101AF000006844F60002C4F2010200219042CDE9E0
:101B00000411CDE9021101911DD044F20001C4F28B
:101B10000101884236D10020009043F63000C4F223
:101B20000200016841F010010160006800F010003F
:101B3000009000984020019040F20040C4F2020062
:101B400000F5406014E043F630000091C4F202005A
:101B5000016841F002010160006800F0020000909D
:101B600000984FF40070019040F20040C4F202006F
:101B700002210291002103910321CDE9041101A961
:101B8000FEF716FD06B080BD70470000B0B50446F4
:101B900090F83C00012804BF0220B0BD0D464FEA7A
:101BA000B2010120032984F83C0037D8DFE801F0B6
:101BB000020A12222068294601F07AFE206850F8B5
:101BC000181F0EE02068294601F0A4FE206850F896
:101BD000181F16E02068294601F0D2FE206850F850
:101BE0001C1F41F008010160016821F0040101603F
:101BF00029690FE02068294601F0F6FE206850F8B8
:101C00001C1F41F400610160016821F480610160E2
:101C1000296909020268114301600020002184F84B
:101C20003C10B0BD002804BF0120704710B5044629
:101C300090F83D0028B9002084F83C00204600F0D0
:101C40001FF8022084F83D002068211D01F070FD7E
:101C5000012084F8460084F83E0084F83F0084F8B0
:101C6000400084F8410084F8420084F8430084F87E
:101C7000440084F8450084F83D00002010BD0000B9
:101C8000704700007047000010B5044641B10829B4
:101C900009D0042914BF04F1410004F13F0004E01D
:101CA00004F13E0001E004F14000007801281CBF6F
:101CB000012010BD022041B1082909D0042914BF18
:101CC00084F8410084F83F0004E084F83E0001E01D
:101CD00084F840002068012201F0C4FD206841F230
:101CE000FF71C4F2000188420FDC40F2FF71C4F2C0
:101CF0000001884217DCB0F1804F49D040F200412A
:101D0000C4F20001884243D049E040F2FF32C4F2FD
:101D10000102904214DC41F60003C4F20003984231
:101D200036D0002314E040F60001C4F200018842DE
:101D30002ED040F60041C4F20001884228D02EE0A7
:101D400044F20003C4F20103984221D040F2004360
:101D5000C4F20103984222D1436C884243F4004309
:101D60004364C2DD904207DC41F60001C4F2000189
:101D700088420DD0002107E044F20001C4F20101C5
:101D8000884205D040F20041C4F20101884206D1E8
:101D9000816801F00701062904BF002010BD016819
:101DA00041F001010160002010BD000000000000B2
:101DB0002DE9F04381B02DED088B82B00068B0F1C1
:101DC000804F29D040F20041C4F20001884236D051
:101DD0000021C4F20101884240F0278240F22440F1
:101DE000C4F2000050F8241C40F29045C9064FF69A
:101DF0000041C2F20005CFF6FF7104D54FF08042DA
:101E00001268D20631D402682B681A442A60002274
:101E1000026043586F6833E04FF08040006840F242
:101E20009041C00640F20000C2F20001CFF6FF7000
:101E30004A6858BF4FF4803010444860F5E140F2E2
:101E40002440C4F2000050F8240C40F29041C00637
:101E500040F20000C2F20001CFF6FF700A6858BFDE
:101E60004FF4803010440860DFE102682B681344AF
:101E70004FF6FF729B1A2B60026047586B68BF1ABF
:101E80003B4440F2AC676B604250C2F20007D5E9B8
:101E90000001D7E900239FEDEA1A801A00EE100A2C
:101EA000C91AB8EEC00A80EE010A01EE101A9FEDC1
:101EB000E62AB8EEC11A81EE021A9FEDE22A40F23C
:101EC000D866C2F2000620EE020A10EE100A86ED75
:101ED000000A21EE021A86ED011A02F07FFD41ECA4
:101EE000100B06241F20102103220123009401F06F
:101EF00097F8706802F072FD41EC100B1F2018215A
:101F000003220123009401F08BF896ED000A40F2C1
:101F1000A46996ED011AC2F20009F0EEC00A99ED2B
:101F2000000A99ED012AD5E90001B0EEC11A30EEA0
:101F3000800AB6EE00BA9FEDC53A31EE022AC7E933
:101F4000000120EE0B0A22EE0B2A40F2880020EE60
:101F5000030A22EE032AC2F2000030EE420A90ED9C
:101F6000002A40F2E860C2F2000090ED003A40F230
:101F7000EC6533EE000A80ED000A22EE000A40F222
:101F80008C40BCEEC00AC2F20000C2F2000580ED37
:101F9000000A95ED000A40F27860C2F20000C6ED3A
:101FA000000A86ED011A01F033FA95ED011AD6ED1B
:101FB000010A40F2B460B0EE408AC2F20000B0EE16
:101FC000410A01F025FAB2EE04AA88EE0A1A40F29C
:101FD0000850C2F200000068B0EE409ABCEEC80A99
:101FE00080ED0D0A40F2E050C2F200000068BCEE45
:101FF000C90A40F2984780ED0E0AC2F2000711EEBE
:10200000100A87ED001A02F0E9FC41EC100B2B20BE
:10201000002102220423009401F002F889EE0A0A4A
:1020200010EE100A87ED010A02F0D8FC41EC100B0B
:102030002B20082102220423009400F0F1FF95EDEB
:10204000000A96ED008A80EE0A0A99ED001AB5EEB4
:10205000408A38EE011A40F2E46821EE0B1AF1EEE4
:1020600010FAC2F200085EDA31EE000AB7EE001A8A
:10207000B4EE410AF1EE10FA07DABFEE001AB4EE40
:10208000410AF1EE10FA00F3BC80D8F8000002F02B
:10209000A5FC9FED690B53EC102B02F063F802F0E6
:1020A0002FF89FED6D0A642288EE000AC8F8000040
:1020B000BDEEC00A10EE101A4A4300EE102AB8EE28
:1020C000C00A38EE400A80EE0A1AC1F1300040F230
:1020D0009C61C2F200010870BDEEC11A11EE100A37
:1020E000C0F1300200EB8000400001EE100AB8EEB3
:1020F000C11A30EE410ABDEEC01AB8EEC12A11EE87
:10210000100AC0F1300030EE420A88702E20BDEE79
:10211000C00AC87010EE100A4A7000EB800030222E
:10212000A2EB400065E09FED4A2A31EE400AB4EE92
:10213000420AF1EE10FA06DA9FED461AB4EE410AB1
:10214000F1EE10FA5DDCD8F8000002F047FC9FEDDC
:102150003A0B55EC104B22462B4602F003F801F0E7
:10216000CFFF02F03BFC22462B4601F0FBFF01F0C3
:10217000C7FF9FED390A642288EE000AC8F8000004
:10218000BDEEC00A10EE101A4A4300EE102AB8EE57
:10219000C00A38EE400A80EE0A1A01F1300040F21F
:1021A0009C61C2F200010870BDEEC11A11EE100A66
:1021B00000F1300200EB8000400001EE100AB8EEA2
:1021C000C11A30EE410ABDEEC01AB8EEC12A11EEB6
:1021D000100A303030EE420A88702E20BDEEC00A60
:1021E000C87010EE100A4A7000EB8000302202EB3B
:1021F0004000087140F22860C2F20000062200F0A0
:102200004BFBD6E90001C9E90001D8F8000002F053
:10221000E5FB41EC100B0627432028210122012376
:10222000009700F0FDFE01F07DF802B0BDEC088BD8
:1022300001B0BDE8F08300BF9A9999999999B93F87
:102240000000FAC3000016440080BBC4CDCCCC3DD6
:10225000CDCC4C3FCDCC4CBF0000C84270470000F5
:102260007047000070470000B0B582B003680446B4
:102270001868D9685A6900F02F05202D01F0200553
:1022800005D125B1204601F037FC02B0B0BD5FEAB0
:10229000007C1EBF02F0010E01F4907212EB0E02E0
:1022A0004AD1226B0840C1063DD5012A3BD100200E
:1022B000019018680190586801900198586940068B
:1022C00042D4A08DE18DE28D002A1CBF401A5FEA46
:1022D000004101D102B0B0BD216851E8031F22685E
:1022E00021F4907142E80313002BF5D1216851E8E5
:1022F000051F226821F0010142E80513002BF5D1EA
:10230000202184F842100021216300BF216851E898
:10231000031F226821F0100142E80313002BF5D1BE
:102320000221616354E0010658D44006D2D520460C
:1023300001F0D6FB02B0B0BDC20718BF11F4807225
:1023400051D1420755D45BE0E06B016849688AB21D
:10235000002ABFD0A38D9A42BCD2E185C069B0F5F6
:10236000807F30D0206850E8030F216820F480700F
:1023700041E80302002AF5D1206850E8050F2168E2
:1023800020F0010041E80502002AF5D1206850E85C
:10239000050F216820F0400041E80502002AF5D130
:1023A000202084F842000020206300BF206850E80D
:1023B000030F216820F0100041E80302002AF5D144
:1023C000E06BFEF741F802206063A08DE18D401ABA
:1023D00081B22046FFF744FF02B0B0BD204601F0B5
:1023E00077FC02B0B0BD626C42F001026264420749
:1023F00006D5BEF1000F03D0626C42F002026264A7
:10240000820706D5BEF1000F03D0626C42F00402D1
:102410006264BCF1000F06D55EEA050203D0626C6F
:1024200042F008026264626C002A3FF453AF084035
:10243000800602D5204601F05FFB20684069616C90
:1024400000F0400001F00801401827D0204601F0BC
:102450001FFB2068406940061BD500BF206850E87C
:10246000050F216820F0400041E80502002AF5D15F
:10247000E06B70B143F68121C0F600010165FEF703
:1024800023F800283FF426AFE06B016D884702B0C7
:10249000B0BD2046FFF7E6FE02B0B0BD2046FFF714
:1024A000E1FE0020606402B0B0BD0000002804BF5F
:1024B0000120704710B5044690F8410028B900206B
:1024C00084F84000204600F021F8242084F84100E0
:1024D0002068C16821F40051C160204601F070FB02
:1024E0002068016921F490410161416921F02A01CC
:1024F0004161C16841F40051C16000202021606445
:1025000084F8411084F84210606310BD80B586B035
:1025100041F200010068C4F20101002288420592E4
:10252000CDE903220292019201D006B080BD43F6AC
:1025300030000092C4F20200436943F0100343618B
:10254000436903F010030093009B0092036843F07B
:1025500001030360006800F00100009000984FF450
:10256000C06001900220CDE9020203200490072000
:10257000059001F5704001A9FEF71AF82520032106
:102580000022FEF773F92520FEF76CF906B080BD36
:1025900010B590F84230202B1CBF022010BD00293E
:1025A0004FF0010418BF002A01D1204610BD0024BD
:1025B000046301F073FB204610BD00000000000022
:1025C0002DE9F04F81B00446006841F20001C4F2E9
:1025D0000101884202D001B0BDE8F08F40F214073B
:1025E000C2F20007387840F2E0617D78C2F2000163
:1025F000012272280A7008BF6C2D57D0722808BFBC
:10260000722D6ED0642800F09C80692800F0DE8076
:10261000702840F08680B878FE7897F804A097F884
:102620000590303801F0BBFE8046A6F130008B46A5
:1026300001F0B5FE9FED920B53EC102B01F052FF11
:1026400042465B4601F08EFD8046AAF130000E4600
:1026500001F0A5FE9FED8C0B53EC102B01F042FF17
:1026600002460B464046314601F07CFD8046A9F10A
:1026700030000E4601F093FE9FED850B53EC102BBE
:1026800001F030FF02460B464046314601F06AFD3C
:1026900001F036FD6C2D00EE100A40F0E18040F2B2
:1026A0007860C2F2000080ED000A3AE0B978FA786A
:1026B0003B794FF47A767143642603EB830312FB74
:1026C000061101EB43014DF22002891A40F2EC6041
:1026D00000EE101AC2F20000B8EEC00A80ED000A47
:1026E00019E0B978FA783B794FF47A767143642629
:1026F00003EB830312FB061101EB43014DF22002B1
:10270000891A40F2EC6000EE101AC2F20000B8EE36
:10271000C00A80ED010A40F2E460C2F2000000212C
:102720000160B88840F204013A68C2F20001888072
:102730000A602068C16841F01001C16001B0BDE8C5
:10274000F08FB878FD7897F8049097F805803038C6
:1027500001F025FE8246A5F130000E4601F01FFE75
:102760009FED470B53EC102B01F0BCFE5246334655
:1027700001F0F8FC0546A9F130000E4601F00FFE0D
:102780009FED410B53EC102B01F0ACFE02460B46C3
:102790002846314601F0E6FC0546A8F130000E4619
:1027A00001F0FDFD9FED3A0B53EC102B01F09AFE6A
:1027B00002460B462846314601F0D4FC01F0A0FC4D
:1027C00040F27861C2F200018860AAE7B878FE782A
:1027D00097F804A097F80590303801F0E0FD8046A6
:1027E000A6F130008B4601F0DAFD9FED250B53EC8E
:1027F000102B01F077FE42465B4601F0B3FC8046A9
:10280000AAF130000E4601F0CAFD9FED1F0B53ECFC
:10281000102B01F067FE02460B464046314601F0A0
:10282000A1FC8046A9F130000E4601F0B8FD9FEDF5
:10283000180B53EC102B01F055FE02460B46404698
:10284000314601F08FFC01F05BFC6C2D00EE100AAC
:102850000DD140F27860C2F2000080ED010A60E71D
:1028600040F2B460C2F2000080ED000A59E740F285
:10287000B460C2F2000080ED010A52E700BF00BF61
:102880009A9999999999B93F7B14AE47E17A843F17
:10289000FCA9F1D24D62503F034690F84100202838
:1028A0001CBF0220704700294FF0010018BF002A0A
:1028B00000D170471962002021219A84DA8458647B
:1028C00083F841101968CA6842F08002CA607047F4
:1028D00070470000FEE700002DE9F04F87B00026AA
:1028E00043F630000696CDE90466CDE9026601960E
:1028F000C4F20200016840F2004541F0100101609D
:102900000168C4F2020501F01001019101990196DC
:10291000016805F5805441F0010101600168012260
:1029200001F0010101910199019601684FF40058ED
:1029300041F020010160016801F02001019101993D
:102940000196016841F008010160016801F0080189
:10295000019101990196016841F00401016001684B
:1029600001F00401019101990196016841F0020111
:10297000016000684FF4005100F0020001900198DE
:102980002046FDF7F1FE05F5406948464FF4A041A9
:102990000122FDF7E9FE05F5006738464FF4A06116
:1029A0000122FDF7E1FE05F5806A504680210022F4
:1029B000FDF7DAFE284640210022FDF7D5FE284625
:1029C0004FF4C0710122FDF7CFFE02ADCDF80880B3
:1029D0004FF001084FF0030B20462946CDE903864E
:1029E000CDF814B0FDF7E4FD4FF4A040CDE90208A6
:1029F00048462946CDE9046BFDF7DAFD4FF4A060A7
:102A0000CDE9020838462946CDE9046BFDF7D0FD33
:102A10008020CDE90208504629460124CDE904660C
:102A2000FDF7C6FD4FF4E07002A951C140F200402D
:102A3000C4F2020029460596FDF7BAFD0220029075
:102A40004FF40410CDE9030448462946FDF7B0FDD4
:102A5000072001210122FDF709FF0720FDF702FFF2
:102A600007B0BDE8F08F000010B586B040F2A0407E
:102A700042F600010024C2F20000C4F200017F22ED
:102A8000C0E9001400F10801CDE90444CDE9024495
:102A9000CDE90044FF231CC1C0E90544FEF78AFBD1
:102AA000002818BFFDF7CCFC40F2A040C2F20000A5
:102AB00001A90122ADF804408DF80640CDE9044497
:102AC000FEF73AFC002818BFFDF7BAFC40F20110EF
:102AD000C0F20100009040F2A040C2F2000069463E
:102AE0000122FEF7DFFB002818BFFDF7A9FC40F22A
:102AF000A040C2F2000000210422FEF721FA0028C3
:102B000018BFFDF79DFC06B010BD000080B588B071
:102B100040F2085044F600020021C2F20000C4F264
:102B20000102A72340F2E73C0791CDE90511CDE969
:102B30000311CDE90111C0E90023C0E9021C0161C4
:102B40008161FEF7D5FC002818BFFDF779FC40F243
:102B50000850C2F20000FFF765F8002818BFFDF723
:102B60006FFC602001900020CDE90200059040F24A
:102B70000850C2F2000001A90022FFF707F8002860
:102B800018BFFDF75DFC40F20850C2F20000FEF7EE
:102B9000ADFF08B080BD000080B586B040F2C040F7
:102BA00000220021C2F20000C4F2010244F29F138D
:102BB00040F2E73C4FF0800ECDE90411CDE902115F
:102BC000CDE90011C0E90023C0E9021CC0E90411ED
:102BD000C0F818E0FEF78CFC002818BFFDF730FCA9
:102BE0004FF48050029040F2C040C2F2000002A9AF
:102BF000FEF760FD002818BFFDF722FC0020CDE99C
:102C0000000040F2C040C2F200006946FEF714FC2A
:102C1000002818BFFDF714FC06B080BDB0B58CB01D
:102C200003AC20462421FDF797FB40F250500025CD
:102C3000C2F200004FF08041C0E90015802181619F
:102C400003214FF6FF72CDE903150121C0E90252BD
:102C5000CDE905150522CDE909152146CDE9005537
:102C60000561CDE907250B92FEF794FD002818BFFA
:102C7000FDF7E6FB40F25050C2F200006946CDE994
:102C80000055FEF7D9FB002818BFFDF7D9FB0CB0A3
:102C9000B0BD0000B0B58CB003AC20462421FDF7D8
:102CA0005BFB40F2985040F200410025C2F2000068
:102CB000C4F20001C0E900158021816103214FF6B3
:102CC000FF72CDE9031501210223C0E90252CDE9CB
:102CD00005150522CDE908312146CDE900550561EC
:102CE0000792CDE90A52FEF755FD002818BFFDF7FF
:102CF000A7FB40F29850C2F200006946CDE90055AA
:102D0000FEF79AFB002818BFFDF79AFB0CB0B0BD88
:102D100080B58CB040F2E05044F200020021C2F2D3
:102D20000000C4F20102A72340F2E73C0B91CDE979
:102D30000911CDE90711CDE90511CDE90311CDE95F
:102D40000111C0E90023C0E9021C01618161FEF7A5
:102D5000CFFB002818BFFDF773FB4FF4805008909D
:102D600040F2E050C2F2000008A9FEF7A3FC0028E0
:102D700018BFFDF765FB40F2E050C2F20000FEF71D
:102D800051FF002818BFFDF75BFB60200190002079
:102D9000CDE90200059040F2E050C2F2000001A926
:102DA0000422FEF7F3FE002818BFFDF749FB40F2AE
:102DB000E050C2F20000FEF799FE0CB080BD0000AA
:102DC00080B540F2286041F20001C2F20000C4F276
:102DD000010100234FF00C0C4FF4614280E80E001B
:102DE000C0E90333C0E905C3C361FFF75FFB0028F7
:102DF00018BFFDF725FB80BDFEE70000FEE70000E1
:102E000000F0070080F00703042B28BF04234FF0D5
:102E1000FF3C03380CFA03F338BF0020994381408C
:102E20000CFA00F022EA00000843704780B540F237
:102E30008C00C2F200004FF48061FDF78DFA80BD76
:102E40002DE9F04303EB010E8E45D8BFBDE8F083BA
:102E500040F28C0802444FF0010CC2F200080C460C
:102E600004E000BF013421B28E451FDD8242F9DD4E
:102E700004F00705CE170CFA05F501EB56714FEA81
:102E8000E109ED430746064604E000BF013637B2CC
:102E9000BA42E7DDA3B23F2BF8D8B3B27F2BF5D807
:102EA00008EBC913D95D2940D955EFE7BDE8F08398
:102EB00080B5002000F056FA012000F05FFA0120F2
:102EC00000F074FA012000F065FA012000F03EFAEB
:102ED00080BD000080B5FFF7EBFFAE2000F072FA76
:102EE000D52000F06FFA802000F06CFAA82000F0E6
:102EF00069FA3F2000F066FAD32000F063FA002060
:102F000000F060FA402000F05DFAA12000F05AFACB
:102F1000C82000F057FADA2000F054FA122000F02E
:102F200051FA812000F04EFACF2000F04BFAD92060
:102F300000F048FAF12000F045FADB2000F042FAF8
:102F4000302000F03FFAA42000F03CFAA62000F068
:102F500039FA8D2000F036FA142000F033FAAF2051
:102F600000F030FAFFF762FF00F0DCF980BD0000EE
:102F7000002904BF0120704702460120013902FBED
:102F800000F0FBD170470000B0B50446002500BF3B
:102F900004FA05F0C0B2C00900F0F0F9012000F019
:102FA000E1F9002000F0DEF90135082DF0D1B0BDC7
:102FB00010B540F0B0000C4600F004FA20091030C3
:102FC00000F000FA04F00F0000F0FCF910BD000062
:102FD00080B582B0062B11D0082B1FD144F6885340
:102FE000C0F6000303EB0212A2F5007C08221023B6
:102FF000CDF800C000F098F802B080BD44F64E3322
:1030000002EB4202C0F6000303EB4202A2F1C00C45
:1030100006220823CDF800C000F086F802B080BD7B
:103020002DE9F04F81B02DED028B84B0B0EE408AD7
:10303000F0EE608A9FED3A0B019392468B46109D0D
:10304000044651EC180B53EC102B01F015FD80B128
:10305000204659462D222B46FFF7BAFF8DED028BF5
:103060009DF80F0080F080008DF80F009DED028B21
:1030700005E0204659462B222B46FFF7A9FF57ECC7
:10308000186B3046394601F05DF9054601F09EF9AE
:1030900002460B463046394601F0B2FBDDF804909B
:1030A000064688460A204946FFF762FF074601F0B8
:1030B0008DF902460B463046414601F013FA41ECC9
:1030C000100B00F0ADFF51EC100B01F03BF9064680
:1030D000B0FBF7F059464219109D5346281900B22B
:1030E000009500F089F80AF1010010FB054000B2DC
:1030F00059462E222B46FFF76BFF0AF1020010FB08
:10310000054000B2594632464B46009500F074F82F
:1031100004B0BDEC028B01B0BDE8F08F00BF00BF72
:1031200000000000000000002DE9F04F85B0984637
:103130000F4602900492FFF783FEA8F1010000EB16
:103140005070C0100390F81707EB5070C11020F0BA
:103150000700381A01EBE7310191002F48BF083012
:103160001FFA80F800B2C0F1080B0020002604E02E
:1031700001360399F0B281423ADB04990029F7D075
:10318000019B40F28C0253FA86F4C2F2000202EB79
:10319000C41404F18007049C0E9AF1B21844DDF8BF
:1031A00008A014FB0125411C06E000BF0AF1010A3A
:1031B000013C05F10105DBD0BAF17F0FF6D80728F5
:1031C0000BD895F800C007EB0A0919F880EC0CFA47
:1031D00008F242EA0E0209F8802C0729E6D82A787C
:1031E00017F80A3022FA0BF21A4307F80A20DDE733
:1031F00005B0BDE8F08F00002DE9F04F81B023B39A
:103200000A9F4CF6CD4A9046894683465C1E0025AF
:10321000CCF6CC4A0A20214605EB0B06FFF7A8FEA8
:10322000B8FBF0F03B46A0FB0A12D10801EB81018C
:10323000A0EB410040F03000C2B230B24946FFF787
:10324000C7FE013C601C3D44E4D101B0BDE8F08FF5
:103250002DE9F0479A461378002B60D01546884632
:103260008146002600270DE007EB090000B2414629
:103270005346FFF7ADFE57442644B0B22B5C002BFB
:103280004DD000BF1806DAB214D502F0E000C02815
:1032900015D002F0F000E0281AD0701C83B202F0C2
:1032A000F801EB5CF02920D0002B064608BFBDE8F2
:1032B000F087E7E7012401200028D5D122E0701C27
:1032C00080B2285C58B3002002240028CCD119E039
:1032D000701C80B2285C10B3B01C80B2285CF0B1C6
:1032E000002003240028BFD10CE0C3B1B01C80B281
:1032F000285CA0B1F01C80B2285C80B100200424BE
:103300000028B1D1BAF1060FB6D107EB090000B21F
:1033100041463F220623FFF75BFE0637ACE7BDE8D8
:10332000F0870000B0B540F28C040025C2F2000422
:10333000E8B20021FFF73CFE2046802100F052F861
:103340000135082D04F18004F2D1B0BD80B50246EC
:1033500041F20000C4F202004FF48051FDF704FA7C
:1033600080BD000080B5024641F20040C4F2020078
:103370004FF40051FDF7F8F980BD000080B502461A
:1033800040F60040C4F202004FF48061FDF7ECF912
:1033900080BD000080B5024641F20000C4F2020088
:1033A0004FF48041FDF7E0F980BD000080B5024692
:1033B00040F60040C4F202004FF48071FDF7D4F9EA
:1033C00080BD000010B504460020FFF7BFFF0020BD
:1033D000FFF7E0FF2046FFF7D7FD0120FFF7B6FF1C
:1033E00010BD0000B0B5054600200C46FFF7AEFF4B
:1033F0000120FFF7CFFF3CB1013D00BF15F8010FE1
:10340000FFF7C2FD013CF9D10120FFF79FFFB0BDDE
:1034100090ED032A30EE601A90ED044A90ED073AE1
:1034200021EE025A90ED000A34EE054AB4EE434A0A
:1034300021EE000AF1EE10FA80ED044A02DD80ED83
:10344000043A08E0B1EE433AB4EE434AF1EE10FA22
:10345000B8BF80ED043A90ED053A90ED024A31EEA6
:10346000433A24EE033A83EE022A90ED013A90EDBE
:10347000044A90ED085A23EE043A9FED124A9FED5C
:10348000126A30EE033A90ED060A80ED051A22EE3C
:10349000042A25EE064A34EE022A80ED082A33EE8D
:1034A000022AB4EE402AF1EE10FAC8BF7047B5EE1A
:1034B000402AB0EE420AF1EE10FAB8BF9FED030ABF
:1034C000704700BFCDCC4C3ECDCC4C3F000000003F
:1034D00040F21002C2F2000280EC040A92ED000AEF
:1034E000B6EE001AB8EE400A002120EE011A016182
:1034F000416180ED060A80ED071A01627047000005
:1035000070470000010901EB810100F00F0000EBA2
:103510004100C0B270470000A0F10A014CF6CD4353
:10352000CAB2CCF6CC43A2FB0323DA0802EB820238
:10353000A1EB4201012202EBD302092888BF41EA34
:103540000210C0B270470000F0B581B004460068B8
:10355000C16849061CD4C16841F08001C160FDF713
:1035600009F92168C968490614D4054600260427CC
:10357000FDF700F9401BB0F57A7F84BF677701261D
:103580002068012EC06806D010F04000F0D002E0A4
:10359000002600E00026F0B201B0F0BD10B50446F0
:1035A0000068C16821F08001C1608068800607D48E
:1035B0002046FDF71FFF18B104206077012010BDE1
:1035C000002010BD80B540F2A040C2F20000FDF71F
:1035D0008FFD80BD70470000B0B501380024B4EB0A
:1035E000106F1CBF0120B0BD4EF21005CEF20005D9
:1035F00068604FF0FF300F2100F0BAFB0720AC608D
:1036000028602046B0BD000080B5FDF7B9F880BD48
:1036100070B592B006AC20463021FCF79DFE002527
:1036200043F640000595CDE90355CDE901550095D8
:10363000C4F202000168022641F080510160006876
:1036400000F080500090009847F200000095C4F20E
:103650000000016841F4804101600068102100F41D
:103660008040009000980A20069001200990CDE942
:103670000A1008200E90A820CDE90F060420119012
:103680002046CDE90C65FDF7B7FA88B90F20CDE9E2
:1036900001064FF4A05004904FF48050059001A80B
:1036A00005210395FDF79AF9002804BF12B070BDFB
:1036B000FCF7C6FE4EF68850CEF20000016841F4D9
:1036C000700101607047000080B540F2C040C2F256
:1036D0000000FEF771F940F2E050C2F20000FEF780
:1036E0006BF980BD80B540F2C040C2F20000FEF729
:1036F00063F940F20850C2F20000FEF75DF980BDA8
:1037000080B540F2C040C2F20000FEF755F980BD1E
:1037100080B540F25050C2F20000FEF74DF980BD76
:1037200080B540F29850C2F20000FEF745F980BD26
:1037300010B540F6FF3E0368C4F2000E40F2004CA4
:103740007045C4F2010C0FDCB0F1804F19D040F28B
:103750000042C4F20002904213D040F60002C4F2CC
:10376000000290420DD010E040F60042C4F2000288
:10377000904206D0604504D00022C4F2010290427B
:1037800003D14A6823F07003134341F6FF72C4F279
:10379000000290420DDC70451FDCB0F1804F41D03B
:1037A00040F20042C4F2000290423BD040F60002D8
:1037B00021E043F6FF72C4F20102904220DC42F2A3
:1037C0000002C4F2000290422CD00022C4F2010296
:1037D000904227D0604525D028E040F60042C4F250
:1037E000000290421ED041F60002C4F20002904254
:1037F00018D041F60042C4F20002904212D015E007
:1038000044F20002C4F2010290420BD044F60002DE
:10381000C4F20102904205D044F20042C4F2010217
:10382000904203D1CA6823F44073134323F080020B
:103830004B69D1F800E08C681A430260C46240F41E
:103840008062C0F828E0624504BF09690163012174
:1038500041610169C90708BF10BD016921F001017B
:10386000016110BD80B501F01F014FF0010CD0F8CF
:1038700020E00CFA01F32EEA03030362036A02FA62
:1038800001F11943016280BDD0F808C011432CF446
:103890007F4C41EA032141EA0C018160704700003E
:1038A000826822F07002114341F007018160704785
:1038B000B0B5026A036A40F2004523F001030362D7
:1038C000D0F804E0D0F818C08C6822F0020240F46E
:1038D0008063C4F20105AB4242EA040205D1CC6820
:1038E00022F00C0224F0040422430C68AB4207D1FE
:1038F000D1E905532EF4407E45EA0E0545EA030E54
:103900002CF073032343C0F804E0836149684163EA
:103910000262B0BD70B5026A036A40F2004423F04F
:1039200010030362D0F804E0D0F818C08D6822F0CC
:10393000200240F48063C4F20104A34242EA05126B
:1039400007D1CD686FF0400622F0C00206EA0515E7
:103950002A430D68A34207D1D1E905642EF44063E0
:1039600043EA860343EA840E2CF4E64343EA052344
:10397000C0F804E0836149688163026270BD0000A1
:1039800070B5026A036A40F2004423F48073036254
:10399000D0F804E0D0F81CC08D6822F4007240F426
:1039A0008063C4F20104A34242EA052207D1CD6834
:1039B00040F2FF462D0222F44062B5432A430D68CF
:1039C000A34207D1D1E905642EF4405343EA06131C
:1039D00043EA041E2CF073032B43C0F804E0C361D8
:1039E0004968C163026270BD70B5D0F820C0026A38
:1039F00040F2004622F4805202624268C3690C68B9
:103A0000D1F808E040F48065C4F20106B54204D163
:103A10004D6922F4804242EA851223F4E64343EAE8
:103A200004234260C3612CF40056496846EA0E3212
:103A30000164026270BD0000D0F820C0036A23F068
:103A400001030362836923F0F00343EA02122CF0BE
:103A50000A0319438261016270470000D0F820C058
:103A6000036A23F010030362836923F4704343EA7B
:103A700002322CF0A00343EA011182610162704717
:103A800080B5806B0021C185C184FEF7EBFB80BD52
:103A9000016851E8031F026821F4907142E80313A2
:103AA000002BF5D1016851E8051F026821F00101E2
:103AB00042E80513002BF5D1016B01290AD100BFA3
:103AC000016851E8031F026821F0100142E8031366
:103AD000002BF5D1202180F84210002101637047AE
:103AE00080B50168CA6822F04002CA60202180F8CF
:103AF0004110FEF7EDFE80BD80B582B090F8421017
:103B000022291ED18268B2F5805F02D101690029A5
:103B10004AD0816AB2F5805F07D00AB9026922B142
:103B20000268526802F07F0201E0026852680A707F
:103B30000121826A11448162C18D01390A04C18563
:103B400001D002B080BD0168CA6822F02002CA60BC
:103B5000CA6822F48072CA604A6922F001024A618E
:103B6000202180F8421000214163026B012A23D1F9
:103B7000016300BF016851E8031F026821F01001D2
:103B800042E80313002BF5D101680A68D20606D576
:103B9000002201920A680192496801910199818D80
:103BA000FEF75EFB02B080BD0168826A49686FF370
:103BB0005F2111800221BCE7FEF702FD02B080BD4B
:103BC00010B504460068D4E902C22369016921F4F2
:103BD000405111430161626943EA0C01E3691143F9
:103BE000C268194349F20C639A431143C1604169A9
:103BF000A26921F4407141F20043114340F4806214
:103C0000C4F201039A42416102D1FCF7AFFF01E027
:103C1000FCF79AFFE16963681922B1F5004FA0FB38
:103C200002011CD15A00DB0FFCF71EFB48F21F51AA
:103C3000C5F2EB11A0FB01235A096FF0630302FBED
:103C40000300322303EBC000A0FB01014FF4F87026
:103C500000EA111000EB0210C1F342111AE09A00C1
:103C60009B0FFCF701FB48F21F51C5F2EB11A0FBC3
:103C700001235A096FF0630302FB0300322303EBB5
:103C80000010A0FB0101F02000EA511000EB02102F
:103C9000C1F3431122680843906010BD8162002186
:103CA0008285C2854164222180F84210016921B1D8
:103CB0000168CA6842F48072CA600168486940F0CD
:103CC00001004861C86840F020020020CA607047C7
:103CD00090F84110212923D18168B1F5805F01D18D
:103CE000016931B1016A02684B1C036209785160B5
:103CF00007E0016A036831F8022B6FF35F225A6014
:103D00000162C18C01390A04C18418BF7047006880
:103D1000C16821F08001C160C16841F04001C1600B
:103D20007047000010B540F22864C2F2000420463B
:103D3000FEF79AFA204600F02BF910BDFEE70000CE
:103D4000002848BF704700F01F01012202FA01F16C
:103D50004EF200124009CEF2000242F820107047E5
:103D60004EF60C50CEF200000068C0F302207047FF
:103D70004EF6145300F00F02CEF2000309011A446C
:103D800000F16043B0F1FF3FC8BF03F5644211701A
:103D9000704700004EF60C51CEF200010A684FF653
:103DA000FF031A4060F30A2242F0806040F0FD7089
:103DB0000860704782B0FCF7F1FCFFF729FCFEF7C2
:103DC0008BFDFEF7A3FEFEF74FFEFEF7F9FFFEF7B1
:103DD00061FFFEF7E1FEFEF79BFFFEF71FFF40F2DB
:103DE000EC600021C2F20000C4F2FA419FED558A56
:103DF0009FED569AC0E9001140F278609FED500A9D
:103E00009FED511AC2F20000F0EE480AF0EE491A96
:103E1000FFF75EFB40F2B4609FED4D0A9FED4D1A37
:103E2000C2F20000F0EE480AF0EE491AFFF750FB2C
:103E300040F288000021C2F20000C4F2C8210160F3
:103E400040F29850C2F200003C21FDF761FD40F2C3
:103E50005050C2F200003C21FDF75AFD40F2C04034
:103E6000C2F20000FDF7D2FB40F20850C2F200009F
:103E70000021FDF709FF40F2E050C2F200000421EA
:103E8000FDF702FFFFF726F833A2012000210623E9
:103E90000624FFF7DDF94320002125220623FFF742
:103EA00097F82FA2012008210623FFF7D1F943201C
:103EB000082125220623FFF78BF82BA201201021D1
:103EC0000623FFF7C5F92AA2012018210623FFF7D0
:103ED000BFF940F2D865C2F20005286800F07EFD07
:103EE00041EC100B1F201021032201230094FFF747
:103EF00097F8686800F072FD41EC100B1F20182144
:103F0000032201230094FFF78BF81BA2012020213C
:103F10000623FFF79DF91BA2012028210623FFF7A6
:103F200097F9FFF7FFF940F2286040F21401C2F25E
:103F30000000C2F200010622FEF72AFBFEE700BFE6
:103F4000DF4F8D3D0AD7233C00000000CDCCCC3D97
:103F50003D0A973EACC527374C447574793A00004A
:103F600052447574793A00004C52504D3A000000AA
:103F70005252504D3A0000004D41583A313730729C
:103F8000706D000053706565642054696D653A007A
:103F900070B582B004460068C168C90623D5002503
:103FA0000195016840F2E06601914168C2F20006A5
:103FB00001910199C16821F01001C160307890B180
:103FC00040F20401C2F2000120460622FEF764FC22
:103FD00000F00CF840F21401C2F200012046062263
:103FE0003570FEF7D5FA02B070BD000040F2040053
:103FF000C2F20000017823290FD14178552918BF5A
:1040000070478178C07801EB810100EB410040F2FC
:1040100070611038C2F200010870704700000000A3
:1040200010B52DED020B2DED088B84B09DED0C0B22
:1040300051EC100B00F08AFB41EC180B9DED0C0BC2
:1040400053EC182B51EC100B00F0DAFB41EC190B80
:104050000D989FED290B10F0004F53EC102B51ECF5
:10406000190B9FED21AB9FED22BB0ED000F0FEF9A6
:104070000ED953EC1B2B51EC190B00F031FB1CD269
:1040800014E000BF41EC180B17E000F0EFF906D286
:1040900053EC1A2B51EC180B00F0B2FBF2E753EC87
:1040A0001B2B51EC190B00F01BFB06D853EC1A2B01
:1040B00051EC180B00F056F8E4E78DED028B9DED06
:1040C0000C0B18EE901A10EE900A8DED000B61F3B8
:1040D0001E0003909DED020B04B0BDEC088B02B0F6
:1040E00010BD000000000000000000000000F03FD4
:1040F000000000000000E03F000000000000E0BF02
:1041000021F0004201F00043A2F16052B2F5801F9D
:1041100028BFD2F17F6C0BD95FEA001C43EAC202D0
:1041200042EB507018BF704728BF20F00100704765
:10413000B2F5801FBCBF184670474FEA410C1CF512
:10414000001F02D2084600F0F1BC70B500F074FA0E
:1041500000000089FFF7F6BF4FF00040A0F5800097
:104160007047000010B591EA030F48BF83F0004389
:1041700000F14E83841A71EB030C05D2121943EB44
:104180000C03001B61EB0C014FEA1154A4EB135C10
:10419000DFF81CE11EEA430F18BF9EEA445F00F0FF
:1041A000748021EA045123EA0E0343F48013DCF106
:1041B000200E32D322FA0CFE10EB0E0023FA0CFE76
:1041C00041EB0E01CCF1200E03FA0EFE10EB0E00B7
:1041D000CCF1200E51F10001B1F5801F32D201EB7C
:1041E000045112FA0EF2BDE8104058BF7047401C4F
:1041F00038BF5FEA420218BF7047002814BF20F0A2
:10420000010041F100014FEA410313F5001F38BFDF
:104210007047A1F1C04100F05DBA012A43EB0302EF
:10422000ACF1200CDCF11F0E32BF4FF0000E23FA70
:104230000CF310EB030041EB0451B4EB115FD0D051
:10424000A1EB045101F58011490801EB04515FEA2B
:1042500030000ED350F1000038BF12FA0EFE08D124
:10426000BDE81040C9E7401C38BF5FEA4202CAD12E
:10427000C3E7BDE810404FEA410313F5001F38BF04
:104280007047A1F1C04100F025BA9EEA445F08D012
:1042900011EA5E0FBDE8104004BF01F000410020AC
:1042A0007047BDE8104070B500F0C6F964FBBE3E33
:1042B0000000E0FF491058BFC1F140415B1058BFFA
:1042C000C3F140438B42EFF30080704751EA030C87
:1042D00017D41CF5801F58BFBCF5801F00F1068065
:1042E000994218BF704708BF9042704707D711F531
:1042F000801F58BF13F5801F19D499427047894217
:1043000070471CF5801F08D5BCF5801FF7D58B4280
:1043100018BF704708BF824270474FF4001C1CEB67
:10432000410F38BF1CEB430F01D28B42704770B571
:1043300000F082F9922449004FF000514FF0805371
:10434000FFF7B8BF4FEA1153A3F58063D3F11E0303
:10435000A8BFD3F1200C08DB4FF0004242EAC12293
:1043600052EA505232FA03F0704709420BD4102B34
:10437000C4BF0020704703F5787CBCF1FF3F05D037
:104380004FF0FF3070474FF00000704770B500F0FD
:1043900053F900BF4992248000207047F0E710F0E5
:1043A000004248BF4042B0FA80F310FA03F10AD04D
:1043B000C3F11D0303F5806302EB03524FEA415042
:1043C00002EBD12170474FF000007047B0FA80F344
:1043D00010FA03F10AD0C3F11D0303F580634FEA1D
:1043E00003524FEA415002EBD12170474FF00000D9
:1043F0007047000051EA030C17D41CF5801F58BF0A
:10440000BCF5801F00F10680994218BF704708BFB5
:104410009042704707D711F5801F58BF13F5801FD2
:1044200019D499427047894270471CF5801F08D5FE
:10443000BCF5801FF7D58B4218BF704708BF82427A
:1044400070474FF4001C1CEB410F38BF1CEB430FAF
:1044500001D28B42704770B500F0EEF8922449000B
:104460004FF080514FF00053FFF724BF51EA030C87
:1044700017D41CF5801F58BFBCF5801F00F10680C3
:10448000994218BF704708BF9042704707D711F58F
:10449000801F58BF13F5801F19D499427047894275
:1044A00070471CF5801F08D5BCF5801FF7D58B42DF
:1044B00018BF704708BF824270474FF4001C1CEBC6
:1044C000410F38BF1CEB430F01D28B42704770B5D0
:1044D00000F0B2F8922449004FF000514FF08053A1
:1044E000FFF7E8BE70B5DFF848C11CEA111E1EBF19
:1044F0001CEA13159EEA0C0F95EA0C0F00F06F8072
:1045000081EA03044EEAD47EAE4421EA4C1123EA48
:104510004C1341F4801143F48013AEF17F7EA1FB74
:10452000024CA0FB0365361955EB0C05A1FB034CAF
:104530004CF10003A0FB021C16EB0C06654153F185
:104540000003094218BF46F0010613F4007F0BD1A7
:104550004FEA03314FEA053041EA155140EA16505F
:1045600034036FF003020AE04FEAC3214FEAC5208B
:1045700041EA555140EA5650F4026FF0020202EB54
:104580002E4201EB025585EACE710AD05FEA440C57
:1045900018BF24F0004450F1000041F1000120EA6E
:1045A000D47040F2FE7C624500D270BDA84214BFB8
:1045B0004FF080444FF04044002E08BF0024BEF16D
:1045C000806FA8BFA1F1C041BDE8704080F2828039
:1045D00001F1C04101F000414FF0000070470CEACA
:1045E00013159EEA0C0F18BF95EA0C0F06D081EA4E
:1045F000030E4FF000000EF0004170BD00F01CF8FB
:104600008900013E00F007B800F009B84FEA430CFA
:104610005FEA5C5C08D081EA030100F05BB84FEA16
:10462000410C5FEA5C5CF6D102494FF00000704734
:104630000000FF070000F87F0EF1020E2EF0030EBF
:104640005EF8046B364205D4012A43EB030515F5E9
:10465000001F12D8012841EB010C1CF5001F0CD8DB
:104660000ED14FEAD17C0CEB4C0C0CF1020C15F581
:10467000001F08BF4CEBD37C04E04FF0080C01E0B6
:104680004FEAD37C0CEB4C0526FA05F606F007063C
:10469000B6F1040C06D20EEB860CBDE870404CF06F
:1046A000010C6047DFE80CF0090B02024FF00041FB
:1046B000A1F500214FF0000070BD194610460128F9
:1046C00051EB010418BFD4F5001484BF002001F0A1
:1046D000004170BD0808A0F500114FEA3101704794
:1046E00053EA010C17D41CF5801F58BFBCF5801F7E
:1046F00000F106808B4218BF704708BF82427047A6
:1047000007D713F5801F58BF11F5801F19D48B42AE
:1047100070479B4270471CF5801F08D5BCF5801F71
:10472000F7D5994218BF704708BF904270474FF4C1
:10473000001C1CEB430F38BF1CEB410F01D2994208
:1047400070470FB40CBC03BCFFF7C1BE5FEA410C5D
:104750005FEA5C5CACF580635B1C39D4D3F1340256
:1047600040F34580B2F1200314DA4FF0010C0CFA4B
:1047700002FCACF10103034020EA0300B3EB5C024E
:1047800008BF10EA0C0F98BF704710EB0C0041F106
:10479000000170470AD0C3F1200201FA02FC01288F
:1047A0004CF1000021FA03F101FA03F14FF0010C82
:1047B0000CFA03FCACF1010321EA0301B0F1004F54
:1047C00008BF11EA0C0F4FF0000088BF614470472A
:1047D000B3F1FF3F28BF50EAC12C01F000414FF078
:1047E000000084BF41F07C5141F470017047B3F583
:1047F000806FB8BF704770B5FFF71EFF40DBB6BED5
:1048000010B591EA030F48BF83F000433FF5B2AC07
:10481000841A71EB030C07D28CF0004C121943EB95
:104820000C03001B61EB0C014FEA1154A4EB135C69
:10483000DFF8A4E11EEA430F18BF9EEA445F00F0D0
:10484000B48021EA045123EA6E035242C3EB6E03A3
:1048500038BF5B1EDCF1200E25D322FA0CFE10EBD4
:104860000E0043FA0CFE41EB0E01CCF1200E03FAD0
:104870000EFE10EB0E00CCF1200E51F1000129D4F8
:1048800001EB045112FA0EF2BDE8104058BF704718
:10489000401C1CBFB2F1004F704700280CBF491CE0
:1048A00020F00100704712EB020E43EB030218BF29
:1048B0004FF0010E4EEA4202ACF1200CDCF11E0E6C
:1048C00056D943FA0CFE10EB0E00CCF11E0E51F13E
:1048D000FF31D5D50EF1010E12FA0EFE404141EB2B
:1048E000010101EB445C5FEA5C5C10D901EB04510F
:1048F00010EBDE7038BFBEF1004FBDE8104018BFAE
:10490000704700280CBF491C20F00100704734D2CA
:104910004FEAD42C24F4006411F500111BD0B1FA35
:1049200081F20B3AA41AA41ED2F12003914030FA6E
:1049300003F31943904001EBCC7101EB0451002CBF
:10494000BDE81040A8BF704701F1C04101F000412F
:104950004FF000007047B0FA80F310FA03F102D173
:10496000BDE810407047E41A173C4805C90AE2E761
:1049700001EB0451BDE81040704749104FEA300088
:1049800001EB0451BDE8104002E04FF00001704718
:104990004A0008BF0042F8D0B2F5001F28BF704798
:1049A00001F000414FF0000070479EEA445F07D0DD
:1049B00011EA5E0FBDE8104004BF002100207047DF
:1049C000BDE8104070B5FFF737FE00BF40DFF63E90
:1049D000104683F0004170470000E0FF43004FEABB
:1049E000D30C4FEA3C0C43401FBF40070CF1605111
:1049F00013F0FE4F70471CF0006F03D10CF0004124
:104A0000002070470CF0004343EA507040EACC00AD
:104A100010B500F038F800BF000000924FEA000126
:104A2000FFF758BE4FF00041A1F500214FF0000004
:104A3000704710B5FFF74AFC0CBF0120002010BDE5
:104A400010B5FFF743FC14BF0120002010BD10B5C6
:104A5000FFF7D0FC8CBF0120002010BD10B5FFF780
:104A6000C9FC2CBF0120002010BD10B5FFF7FEFCD3
:104A700094BF0120002010BD10B5FFF7F7FC34BF34
:104A80000120002010BD0EF1020E2EF0030E5EF884
:104A9000044B244204D44FEA4102B2F17F4F11D8B3
:104AA0004FEA4003B3F17F4F0CD80ED14FEAD07CD0
:104AB0000CEB4C0C0CF1020CB2F17F4F08BF4CEB2D
:104AC000D17C04E04FF0080C01E04FEAD17C0CEB04
:104AD0004C0324FA03F404F00704B4F1040C06D2E6
:104AE0000EEB840CBDE810404CF0010C6047DFE891
:104AF0000CF0070802024FF00040A0F5800010BD46
:104B00000846420018BFD2F1807288BF00F0004012
:104B100010BDF1EE100A4FF6FF71C0F2C03120EA6D
:104B2000010040F04070E1EE100A7047FF2141EAB9
:104B3000D050C005704700000000000000000102D6
:104B40000304060708090000000001020304000036
:104B5000000000000000002F000000000700070018
:104B600000147F147F1400242A7F2A1200231308C4
:104B70006462003649552250000000070000000022
:104B80001C224100000041221C000014083E0814B1
:104B90000008083E0808000000A06000000808089F
:104BA0000808000060600000002010080402003EB9
:104BB0005149453E0000427F400000426151494654
:104BC000002141454B31001814127F100027454544
:104BD0004539003C4A494930000171090503003656
:104BE0004949493600064949291E00003636000069
:104BF000000056360000000814224100001414146E
:104C00001414000041221408000201510906003E5C
:104C10004955592E007C1211127C007F49494936B2
:104C2000003E41414122007F4141221C007F494911
:104C30004941007F09090901003E4149497A007F45
:104C40000808087F0000417F4100002040413F01EB
:104C5000007F08142241007F40404040007F020C4A
:104C6000027F007F0408107F003E4141413E007FEB
:104C700009090906003E4151215E007F09192946B4
:104C80000046494949310001017F0101003F404090
:104C9000403F001F2040201F003F4038403F00633E
:104CA0001408146300070870080700615149454360
:104CB00000007F4141000002040810200000414133
:104CC0007F00000402010204004040404040000018
:104CD00001020400002054545478007F48444438B2
:104CE00000384444442000384444487F0038545439
:104CF000541800087E0901020018A4A4A47C007FB7
:104D0000080404780000447D4000004080847D0059
:104D1000007F102844000000417F4000007C041800
:104D20000478007C0804047800384444443800FCCB
:104D3000242424180018242418FC007C08040408E7
:104D400000485454542000043F444020003C40405C
:104D5000207C001C2040201C003C4030403C004493
:104D600028102844001CA0A0A07C004464544C449B
:104D70000000087F41000000007F00000000417F2C
:104D800008000008040810080000000000000000EF
:104D90000000000000000000000000F8000000001B
:104DA000000000333000000000160E00160E000058
:104DB000000000000000000040C07840C0784000C3
:104DC000043F04043F040400007088FC0830000025
:104DD000001820FF211E0000F008F000E01800007D
:104DE00000211C031E211E0000F008887000000036
:104DF0001E21232419272110000000160E00000098
:104E00000000000000000000000000E018040200A4
:104E1000000000071820400000020418E000000015
:104E20000040201807000000404080F08040400013
:104E30000202010F01020200000000F00000000069
:104E40000101011F0101010000000000000000003D
:104E500000B0700000000000000000000000000032
:104E6000000101010101010100000000000000003B
:104E700000303000000000000000000080601804D6
:104E8000006018060100000000E010080810E000B3
:104E9000000F102020100F00001010F8000000007C
:104EA0000020203F202000000070080808887000C3
:104EB0000030282422213000003008888848300043
:104EC0000018202020110E000000C02010F8000063
:104ED00000070424243F240000F8088888080800FC
:104EE0000019212020110E0000E010888818000011
:104EF000000F112020110E0000380808C8380800E3
:104F00000000003F00000000007088080888700062
:104F1000001C222121221C0000E010080810E000E3
:104F20000000312222110F00000000C0C00000006C
:104F30000000003030000000000000C0C000000091
:104F4000000080B0700000000000804020100800C9
:104F50000001020408102000404040404040400052
:104F6000040404040404040000081020408000002D
:104F70000020100804020100007048080808F00032
:104F80000000003036010000C030C828E810E00002
:104F90000718272423140B000000C038E00000008D
:104FA000203C23020227382008F8888888700000F7
:104FB000203F202020110E00C030080808083800CB
:104FC000071820202010080008F808080810E00042
:104FD000203F202020100F0008F88888E8081000E3
:104FE000203F20202320180008F88888E8081000B7
:104FF000203F200003000000C030080808380000EF
:1050000007182020221E020008F808000008F808EF
:10501000203F210101213F20000808F80808000076
:105020000020203F2020000000000808F8080800A9
:10503000C08080807F00000008F888C02818080021
:10504000203F20012638200008F80800000000005A
:10505000203F20202020300008F8F800F8F8080051
:10506000203F003F003F200008F830C00008F8084B
:10507000203F200007183F00E01008080810E0005B
:105080000F10202020100F0008F808080808F00072
:10509000203F210101010000E01008080810E00095
:1050A0000F18242438504F0008F88888888870002A
:1050B000203F2000030C30200070880808083800CA
:1050C0000038202121221C00180808F808081800C0
:1050D0000000203F2000000008F808000008F80841
:1050E000001F202020201F000878880000C83808F2
:1050F000000007380E010000F80800F80008F8006A
:10510000033C0700073C0300081868808068180803
:1051100020302C03032C30200838C800C838080081
:105120000000203F2000000010080808C8380800D0
:105130002038262120201800000000FE0202020074
:105140000000007F40404000000C30C00000000024
:10515000000000010638C00000020202FE0000004C
:10516000004040407F00000000201008040810208C
:10517000000000000000000000000000000000002F
:105180008080808080808080000204080000000011
:10519000000000000000000000008080808000000F
:1051A0000019242222223F2008F8008080000000FD
:1051B000003F112020110E000000008080800000C0
:1051C000000E112020201100000000808088F800CF
:1051D000000E112020103F20000080808080000001
:1051E000001F222222221300008080F08888881865
:1051F0000020203F20200000000080808080800070
:10520000006B94949493600008F800808080000004
:10521000203F210000203F200080989800000000DF
:105220000020203F2020000000000080989800000F
:1052300000C08080807F000008F80000808080002F
:10524000203F24022D302000000808F80000000054
:105250000020203F2020000080808080808080000F
:10526000203F20003F20003F008080008080000021
:1052700000203F2100203F2000008080808000002F
:10528000001F202020201F00808000808000000060
:1052900080FFA12020110E0000000080808080008F
:1052A000000E112020A0FF80808080008080800080
:1052B00020203F21200001000000808080808000AD
:1052C0000033242424241900008080E08080000022
:1052D0000000001F2020000080800000008080006F
:1052E000001F202020103F208080800000808080D0
:1052F00000010E3008060100808000800080808060
:105300000F300C030C300F00008080008080800084
:105310000020312E0E3120008080800000808080AF
:1053200080818E701806010000808080808080005F
:105330000021302C2221300000000000807C02027D
:1053400000000000003F404000000000FF0000009F
:1053500000000000FF0000000002027C800000004E
:105360000040403F0000000000804040800000807E
:105370000000000000010100985300080000002018
:1053800028000000C4010008C053000828000020C5
:10539000D00C0000E00100080024F4002353343551
:1053A0003B00000000000000E80300002348313209
:1053B0003B000000000001001000000000000000A1
:040000050800018965
:00000001FF
